S01A0000417564696F5F5370656374726F6D657465722E73726563BC
S11300000C9474290C9486290C9486290C948629C2
S11300100C9486290C9486290C9486290C948629A0
S11300200C9486290C9486290C9486290C94862990
S11300300C9486290C9486290C9486290C94862980
S11300400C9486290C9486290C9486290C94862970
S11300500C9486290C9486290C9486290C94862960
S11300600C9486290C9486290000000000000000EE
S1130070000000000000000000000000000000007C
S1130080000000000000000000000000000000006C
S1130090000000000000000000000000000000005C
S11300A0000000000000000000000000000000004C
S11302E000000000000000000000FFFFFFFFFFFF10
S11302F000000000000000000000000000000000FA
S11303000000000000000000000000000000FFFFEB
S1130310FFFF00210000FFFFFFFF000000000000BE
S113032000000000000000000000000000000000C9
S113033000000000000000000000000000000000B9
S113034000000000000000000000000000000000A9
S11303500000000000000000000000000000000099
S11303600000000000000000000000000000000089
S11303700000000000000000000000000000000079
S11303800000000000000000000000000000000069
S11303900000000000000000000000000000000059
S11303A000000000000000000000FFFFFFFFFFFF4F
S11303B052AA00000000000000000000000000003D
S11303C00000000000000000000000000000FFFF2B
S11303D0FFFF00210000EF7EEF7E00000000000020
S11303E00000000000000000000000000000000009
S11303F000000000000000000000000000000000F9
S113040000000000000000000000000000000000E8
S113041000000000000000000000000000000000D8
S113042000000000000000000000000000000000C8
S113043000000000000000000000000000000000B8
S113044000000000000000000000000000000000A8
S11304500000000000000000000000000000000098
S11304600000000000000000FFFFFFFF0000FFFF8E
S1130470FFFF000000001082FFFFFFFF00000000EC
S1130480FFFFFFFF00000000FFFFFFFFFFFFFFFF74
S1130490FFFF00210000FFFFFFFF0000000000003D
S11304A0FFFFFFFFFFFFFFFF000000000000000050
S11304B00000000000000000000000000000000038
S11304C00000000000000000000000000000000028
S11304D00000000000000000000000000000000018
S11304E00000000000000000000000000000000008
S11304F000000000000000000000000000000000F8
S113050000000000000000000000000000000000E7
S113051000000000000000000000000000000000D7
S11305200000000000000000FFFFFFFF0000FFFFCD
S1130530FFFF000000001082FFFFFFFF000000002B
S1130540FFFFFFFF0000FFFFFFFFFFFFFFFFFFFFB5
S1130550FFFF00210000FFFFFFFF00000000FFFF7E
S1130560FFFFFFFFFFFFFFFFFFFF00000000000091
S11305700000000000000000000000000000000077
S11305800000000000000000000000000000000067
S11305900000000000000000000000000000000057
S11305A00000000000000000000000000000000047
S11305B00000000000000000000000000000000037
S11305C00000000000000000000000000000000027
S11305D00000000000000000000000000000000017
S11305E0000000000000FFFFFFFFFFFF0000FFFF0F
S11305F0FFFFFFFF00001082FFFFFFFF000000006D
S1130600FFFFFFFF0000FFFFFFFF00000000FFFFF0
S1130610FFFF00210000FFFFFFFF0000EF7EFFFF50
S1130620FFFF00000000FFFFFFFF000000000000CC
S113063000000000000000000000000000000000B6
S113064000000000000000000000000000000000A6
S11306500000000000000000000000000000000096
S11306600000000000000000000000000000000086
S11306700000000000000000000000000000000076
S11306800000000000000000000000000000000066
S11306900000000000000000000000000000000056
S11306A0000000000000FFFFFFFFFFFFFFFFFFFF50
S11306B0FFFFFFFF00001082FFFFFFFF00007BF041
S11306C0FFFFFFFF0000FFFFFFFF00000000FFFF30
S11306D0FFFF00210000FFFFFFFF0000FFFFFFFFFF
S11306E0FFFF00000000FFFFFFFF0000000000000C
S11306F000000000000000000000000000000000F6
S113070000000000000000000000000000000000E5
S113071000000000000000000000000000000000D5
S113072000000000000000000000000000000000C5
S113073000000000000000000000000000000000B5
S113074000000000000000000000000000000000A5
S11307500000000000000000000000000000000095
S1130760000000000000FFFFFFFFFFFFFFFFFFFF8F
S1130770FFFFFFFF00000000FFFFFFFFFFFFFFFF81
S1130780FFFFFFFF0000FFFFFFFFFFFF8C51FFFF94
S1130790FFFF00210000FFFFFFFF00000000FFFF3C
S11307A0FFFF0000FFFFFFFFFFFF0000000000004D
S11307B00000000000000000000000000000000035
S11307C00000000000000000000000000000000025
S11307D00000000000000000000000000000000015
S11307E00000000000000000000000000000000005
S11307F000000000000000000000000000000000F5
S113080000000000000000000000000000000000E4
S113081000000000000000000000000000000000D4
S113082000000000FFFFFFFFFFFF000000000000CA
S1130830FFFFFFFFFFFF0000FFFFFFFFFFFF0000C0
S1130840FFFFFFFF00000000FFFFFFFFFFFFFFFFB0
S1130850FFFF00210000FFFFFFFF000000006B4DC1
S1130860FFFFFFFFFFFFFFFF00000000000000008C
S11308700000000000000000000000000000000074
S11308800000000000000000000000000000000064
S11308900000000000000000000000000000000054
S11308A00000000000000000000000000000000044
S1130EB000000000FFFFFFFFFFFFFFFFFFFF7C10AC
S1130EC0000000000000000000000000000000001E
S1130ED0000000000000000000000000000000000E
S1130EE000000000000000000000000000000000FE
S1130EF000000000FFFF00000000000000000000F0
S1130F0000000000000000000000000000000000DD
S1130F1000000000000000000000000000000000CD
S1130F2000000000000000000000000000000000BD
S1130F300000000000000000000000000000FFFFAF
S1130F40FFFF00000000000000000000000000009F
S1130F50000000000000000000000000000000008D
S1130F60000000000000000000000000000000007D
S1130F700000FFFFFFFFFFFF0000FFFFFFFFFFFF79
S1130F80000000000000000000000000000000005D
S1130F90000000000000000000000000000000004D
S1130FA0000000000000000000000000000000003D
S1130FB00000FFFFFFFF0000000000000000000031
S1130FC0000000000000000000000000000000001D
S1130FD0000000000000000000000000000000000D
S1130FE000000000000000000000000000000000FD
S1130FF0000000000000000000000000FFFFFFFFF1
S1131000FFFF0000000000000000000000000000DE
S113101000000000000000000000000000000000CC
S113102000000000000000000000000000000000BC
S11310300000FFFFFFFFFFFFFFFF000000000000B4
S113104000000000FFFFFFFFFFFFFFFFFFFF0000A6
S113105000000000FFFFFFFFFFFFFFFFFFFF000096
S113106000000000FFFFFFFFFFFFFFFF0000000084
S1131070FFFFFFFFFFFFFFFFFFFF0000FFFFFFFF7A
S1131080FFFFFFFF00000000FFFFFFFFFFFFFFFF68
S1131090000000000000FFFFFFFFFFFFFFFFFFFF56
S11310A00000FFFFFFFFFFFF000000000000FFFF44
S11310B0FFFFFFFFFFFFCE590000E71CFFFFFFFF0C
S11310C0FFFFFFFF00000000FFFFFFFFFFFFFFFF28
S11310D0000000000000FFFFFFFFFFFFFFFF000014
S11310E000000000000000000000000000000000FC
S11310F000000000FFFFFFFFFFFFFFFFFFFFFFFFF8
S113110000000000FFFFFFFFFFFFFFFFFFFFFFFFE7
S11311100000FFFFFFFFFFFF0000FFFFFFFFFFFFD7
S11311200000FFFFFFFFFFFFFFFFFFFFFFFF0000C7
S1131130FFFFFFFFFFFFFFFFFFFF0000FFFFFFFFB9
S1131140FFFFFFFF0000FFFFFFFFFFFFFFFFFFFFA9
S1131150FFFF00000000FFFFFFFFFFFFFFFFFFFF97
S1131160FFFFFFFFFFFFFFFFFFFF0000FFFFFFFF89
S1131170FFFF0000FFFFFFFF0000E71CFFFFFFFF72
S1131180FFFFFFFF0000FFFFFFFFD69A0000FFFFF5
S1131190FFFF00000000FFFFFFFFFFFFFFFF000055
S11311A0000000000000000000000000000000003B
S11311B00000000000000000FFFFFFFFFFFFFFFF33
S11311C000000000FFFFFFFF00000000FFFFFFFF23
S11311D00000FFFFFFFF18C318C318E4FFFFFFFF61
S11311E00000FFFFFFFF00000000000000000000FF
S11311F00000FFFFFFFF000000000000FFFFFFFFF3
S1131200000000000000FFFFFFFF00000000FFFFE0
S1131210FFFFFFFF0000FFFFFFFF00000000FFFFD4
S1131220FFFF000010A2FFFFFFFF0000FFFFFFFF12
S113123018C318C3FFFFFFFFFFFF0000FFFFFFFFFE
S1131240FFFF00000000FFFFFFFF18C310C3FFFFF4
S1131250FFFFAD760000FFFFFFFF0000000000006D
S1131260000000000000000000000000000000007A
S11312700000FFFFFFFFFFFF00000000FFFFFFFF74
S1131280E71C0000FFFFFFFF00000000FFFFFFFF5F
S11312900000FFFFFFFFFFFFFFFFFFFFFFFFFFFF58
S11312A00000FFFFFFFF000000000000000000003E
S11312B00000FFFFFFFF000000000000FFFFFFFF32
S11312C0000000000000FFFFFFFF00000000FFFF20
S11312D0FFFFFFFF0000FFFFFFFF00000000FFFF14
S11312E0FFFF00000021FFFFFFFF0000FFFFFFFFE3
S11312F0FFFFFFFFFFFFFFFFFFFF0000FFFFFFFFF8
S1131300FFFF00000000FFFFFFFFFFFFFFFFFFFFE5
S1131310FFFFFFFF0000FFFFFFFF000000000000D1
S113132000000000000000000000000000000000B9
S11313300000FFFFFFFFFFFFF7BEFFFFFFFFFFFF00
S113134000000000FFFFFFFFFFFFFFFFFFFFFFFFA5
S11313500000FFFFFFFFFFFF0000FFFFFFFFFFFF95
S11313600000FFFFFFFFFFFF0000FFFFFFFF000083
S11313700000FFFFFFFFFFFFFFFF0000FFFFFFFF75
S1131380000000000000FFFFFFFFFFFF0000FFFF61
S1131390FFFF00000000FFFFFFFF00000000FFFF51
S11313A0FFFF00000021FFFFFFFF0000FFFFFFFF22
S11313B0FFFF0000FFFFFFFFFFFF0000FFFFFFFF35
S11313C0FFFFFFFF0000FFFFFFFF00000000FFFF23
S11313D0FFFF00000000FFFFFFFF0000000000000F
S11313E000000000000000000000000000000000F9
S11313F000000000FFFFFFFFFFFFFFFFFFFF0000F3
S113140000000000FFFFFFFFFFFFFFFFFFFF0000E2
S113141000000000FFFFFFFFFFFFFFFFFFFF0000D2
S113142000000000FFFFFFFFFFFFFFFFFFFF0000C2
S11314300000FFFFFFFFFFFFFFFF0000FFFFFFFFB4
S11314400000000000000000FFFFFFFFFFFFFFFFA0
S1131450000000000000FFFFFFFF00000000FFFF8E
S1131460FFFF00000021FFFFFFFF00000000FFFF5F
S1131470FFFFFFFFFFFFFFFF000000000000FFFF72
S1131480FFFFFFFF00000000FFFFFFFFFFFFFFFF64
S1131490FFFF00000000FFFFFFFF0000000000004E
S11314A00000000000000000000000000000000038
S11314B00000000000000000000000000000000028
S11314C000000000FFFFFFFF00000000000000001C
S11314D00000000000000000000000000000000008
S11314E000000000000000000000000000000000F8
S11314F000000000000000000000000000000000E8
S113150000000000000000000000000000000000D7
S113151000000000000000000000000000000000C7
S113152000000000000000000000000000000000B7
S113153000000000000000000000000000000000A7
S11315400000000000000000000000000000000097
S11315500000000000000000000000000000000087
S11315600000000000000000000000000000000077
S11315700000000000000000000000000000000067
S113158000000000FFFFFFFF00000000000000005B
S11315900000000000000000000000000000000047
S11315A00000000000000000000000000000000037
S11315B00000000000000000000000000000000027
S11315C00000000000000000000000000000000017
S1131AE0FFFFFFFFB5B6000000000000FFFFFFFF8F
S1131AF0FFFFFFFFFFFF000000000000FFFFFFFFEC
S1131B00FFFFFFFF00000000000000000000FFFFD7
S1131B10FFFF8C72000000000000FFFFFFFFFFFFCB
S1131B20FFFFFFFF000000000000FFFFFFFFFFFFBB
S1131B30FFFFFFFF000000000000000000000000A5
S1131B400000000000000000000000000000000091
S1131B500000000000000000000000000000000081
S1131B600000000000000000000000000000000071
S1131B700000000000000000000000000000000061
S1131B800000000000000000000000000000000051
S1131B900000000000000000000000000000FFFF43
S1131BA0FFFFFFFFB5B600000000FFFFFFFFF7BF18
S1131BB00000FFFFFFFF00000000FFFFFFFF000029
S1131BC00000FFFFFFFF000000000000FFFFFFFF19
S1131BD0FFFF8C7200000000FFFFFFFFFFFF00000B
S1131BE0FFFFFFFFFFFF0000FFFFFFFF00000000FB
S1131BF0FFFFFFFF000000000000000000000000E5
S1131C0000000000000000000000000000000000D0
S1131C1000000000000000000000000000000000C0
S1131C2000000000000000000000000000000000B0
S1131C3000000000000000000000000000000000A0
S1131C400000000000000000000000000000000090
S1131C50000000000000000000000000FFFFFFFF84
S1131C60FFFFFFFFB5B600000000FFFFFFFFE73CEA
S1131C700000FFFFFFFF00000000FFFFFFFF000068
S1131C800000FFFFFFFF00000000FFFFFFFFFFFF5A
S1131C90FFFF8C7200000000FFFFFFFF0000000048
S1131CA00000000000000000FFFFFFFF0000000034
S1131CB00000000000000000000000000000000020
S1131CC00000000000000000000000000000000010
S1131CD00000000000000000000000000000000000
S1131CE000000000000000000000000000000000F0
S1131CF000000000000000000000000000000000E0
S1131D0000000000000000000000000000000000CF
S1131D100000000000000000000000004229000054
S1131D20FFFFFFFFB5B6000000000000FFFFFFFF4C
S1131D30FFFFFFFFC63900000000FFFFFFFF0000A8
S1131D400000FFFFFFFF0000000039C70000FFFF95
S1131D50FFFF8C7200000000FFFFFFFFFFFFFFFF8B
S1131D60FFFFFFFF00000000FFFFFFFFFFFFFFFF7B
S1131D70FFFFFFFF00000000000000000000000063
S1131D80000000000000000000000000000000004F
S1131D90000000000000000000000000000000003F
S1131DA0000000000000000000000000000000002F
S1131DB0000000000000000000000000000000001F
S1131DC0000000000000000000000000000000000F
S1131DD000000000000000000000000000000000FF
S1131DE0FFFFFFFFB5B600000000FFFFFFFFFFFF8E
S1131DF00000FFFFFFFF00000000FFFFFFFF0000E7
S1131E000000FFFFFFFF0000000000000000FFFFD4
S1131E10FFFF8C7200000000FFFFFFFFFFFF0000C8
S1131E20FFFFFFFFFFFF0000FFFFFFFF00000000B8
S1131E30FFFFFFFF000000000000000000000000A2
S1131E40000000000000000000000000000000008E
S1131E50000000000000000000000000000000007E
S1131E60000000000000000000000000000000006E
S1131E70000000000000000000000000000000005E
S1131E80000000000000000000000000000000004E
S1131E90000000000000000000000000000000003E
S1131EA0FFFFFFFFB5B600000000FFFFFFFF0000CB
S1131EB00000FFFFFFFFFFFF0000FFFFFFFF000028
S1131EC00000FFFFFFFF0000000000000000FFFF14
S1131ED0FFFF8C7200000000FFFFFFFF0000000006
S1131EE00000FFFFFFFF0000FFFFFFFF00000000F6
S1131EF0FFFFFFFF000000000000000000000000E2
S1131F0000000000000000000000000000000000CD
S1131F1000000000000000000000000000000000BD
S1131F2000000000000000000000000000000000AD
S1131F30000000000000000000000000000000009D
S1131F40000000000000000000000000000000008D
S1131F50000000000000000000000000000000007D
S1131F60FFFFFFFFB5B600000000FFFFFFFFFFFF0C
S1131F700000FFFFFFFFFFFF0000FFFFFFFFFFFF69
S1131F80FFFFFFFFFFFF0000000000000000FFFF55
S1131F90FFFF8C72000000002965FFFFFFFF0000B7
S1131FA0FFFFFFFFCE590000FFFFFFFFFFFF000010
S1131FB0FFFFFFFF00000000000000000000000021
S1131FC0000000000000000000000000000000000D
S1131FD000000000000000000000000000000000FD
S1131FE000000000000000000000000000000000ED
S1131FF000000000000000000000000000000000DD
S113200000000000000000000000000000000000CC
S113201000000000000000000000000000000000BC
S1132020FFFFFFFFB5B6000000000000FFFFFFFF49
S1132030FFFFFFFFFFFF000000000000FFFFFFFFA6
S1132040FFFFFFFF00000000000000000000FFFF92
S1132050FFFF8C72000000000000FFFFFFFFFFFF86
S1132060FFFFFFFF000000000000FFFFFFFFFFFF76
S1132070FFFF00000000000000000000000000005E
S1132080000000000000000000000000000000004C
S1132090000000000000000000000000000000003C
S11320A0000000000000000000000000000000002C
S11320B0000000000000000000000000000000001C
S11326C00000FFFFFFFF2945000000000000FFFF9E
S11326D0FFFF0000000000000000000000000000F8
S11326E000000000000000000000000000000000E6
S11326F0000000000000000000000000FFFFFFFFDA
S113270000000000000000000000000000000000C5
S113271000000000000000000000000000000000B5
S11327200000000000000000000000000000FFFFA7
S1132730FFFFFFFF00000000000000000000000099
S11327400000FFFFFFFFFFFFFFFFFFFF000000008F
S11327500000000000000000000000000000000075
S11327600000000000000000000000000000000065
S11327700000000000000000000000000000000055
S11327800000FFFFFFFFFFFF00000000FFFFFFFF4F
S1132790FFFF000000000000000000000000000037
S11327A00000000000000000000000000000000025
S11327B00000000000000000000000000000000015
S11327C00000000000000000000000000000000005
S11327D000000000000000000000000000000000F5
S11327E0000000000000000000000000FFFFFFFFE9
S11327F0FFFFFFFF000000000000000000000000D9
S1132800FFFFFFFFFFFF0000FFFFFFFF00000000CE
S113281000000000000000000000000000000000B4
S113282000000000000000000000000000000000A4
S11328300000000000000000000000000000000094
S113284000000000FFFFFFFF00000000FFFFFFFF8C
S1132850634D00000841FFFFFFFFFFFFFFFF000083
S11328600000FFFFFFFF0000FFFFFFFF0000FFFF6E
S1132870FFFFFFFFFFFFFFFF00000000FFFFFFFF60
S1132880000000009492FFFFFFFFFFFFFFFF000026
S11328900000FFFFFFFF0000FFFFFFFFFFFF00003E
S11328A000000000000000000000FFFFFFFFFFFF2A
S11328B0FFFFFFFF00000000000000000000000018
S11328C0FFFFFFFF00000000FFFFFFFFFFFF00000E
S11328D000000000000000000000000000000000F4
S11328E000000000000000000000000000000000E4
S11328F000000000000000000000000000000000D4
S113290000000000FFFFFFFF00000000FFFFFFFFCB
S113291000000000FFFFFFFF00005ACBFFFFFFFF96
S11329200000FFFFFFFFFFFFFFFF00002145FFFF47
S1132930FFFF0000FFFFFFFF00000000FFFFFFFF9D
S113294000000000FFFFFFFF18E4FFFFFFFFFFFF91
S11329500000FFFFFFFFFFFFFFFFFFFFFFFF00007F
S1132960000000000000000000007BF00000FFFFFA
S1132970FFFFFFFF00000000000000000000000057
S1132980FFFFFFFF00000000FFFFFFFFFFFF00004D
S11329900000000000000000000000000000000033
S11329A00000000000000000000000000000000023
S11329B00000000000000000000000000000000013
S11329C000000000FFFFFFFFFFFFFFFFFFFFFFFF0F
S11329D00000FFFFFFFFFFFFFFFFFFFFFFFFFFFF01
S11329E00000FFFFFFFFFFFF000000000000FFFFEB
S11329F0FFFFFFFFFFFFFFFF00000000FFFFFFFFDF
S1132A000000FFFFFFFFFFFF00000000FFFFFFFFCC
S1132A100000FFFFFFFF9CD30000FFFFFFFF2145E5
S1132A200000000000000000000000000000FFFFA4
S1132A30FFFFFFFF00000000000000000000000096
S1132A40FFFFFFFF00000000FFFFFFFFFFFF00008C
S1132A500000000000000000000000000000000072
S1132A600000000000000000000000000000000062
S1132A700000000000000000000000000000000052
S1132A80000000000000FFFFFFFFFFFFFFFF00004A
S1132A900000FFFFFFFFFFFFFFFFFFFFFFFFFFFF40
S1132AA00000FFFFFFFFFFFF000000000000000028
S1132AB094B3FFFFFFFFFFFFCE590000FFFFFFFFAE
S1132AC00000FFFFFFFFFFFF00000000FFFFFFFF0C
S1132AD00000FFFFFFFF00000000FFFFFFFF214594
S1132AE00000000000000000000000000000FFFFE4
S1132AF0FFFFFFFF000000000000000000000000D6
S1132B00FFFFFFFF00000000FFFFFFFFAD760000A6
S1132B1000000000000000000000000000000000B1
S1132B2000000000000000000000000000000000A1
S1132B300000000000000000000000000000000091
S1132B40000000000000FFFFFFFFFFFFFFFF000089
S1132B5000000000FFFFFFFF0000528AFFFFFFFF9D
S1132B600000FFFFFFFFFFFF00000000FFFFFFFF6B
S1132B70FFFF0000FFFFFFFFFFDF0000FFFFFFFF7D
S1132B8000000000FFFFFFFF9492FFFFFFFFFFFF25
S1132B900000FFFFFFFF00000000FFFFFFFF2145D3
S1132BA00000000000000000000000000000FFFF23
S1132BB0FFFFFFFF00000000FFFFFFFFFFFF00001B
S1132BC0FFFFFFFFFFFFFFFFFFFFFFFF000000000D
S1132BD000000000000000000000000000000000F1
S1132BE000000000000000000000000000000000E1
S1132BF000000000000000000000000000000000D1
S1132C000000000000000000FFFFFFFFFFFF0000C6
S1132C10000000000000FFFFFFFFFFFFFFFF0000B8
S1132C200000FFFFFFFFFFFF000000000000FFFFA8
S1132C30FFFFFFFFFFFFFFFF00000000FFFFFFFF9C
S1132C40000000000000FFFFFFFFFFFFFFFF000088
S1132C500000FFFFFFFF00000000FFFFFFFF214512
S1132C600000000000000000000000000000FFFF62
S1132C70FFFFFFFF00000000FFFFFFFFFFFF00005A
S1132C800000FFFFFFFFFFFFFFFF00000000000048
S1132C900000000000000000000000000000000030
S1132CA00000000000000000000000000000000020
S1132CB00000000000000000000000000000000010
S1132CC00000000000000000000000000000000000
S1132EE00000000000000000FFFFFFFFFFFFFFFFE6
S1132EF0FFFFFFFFFFFFFFFFFFFFFFFFFFFFFFFFDE
S1132F00FFFFFFFFFFFFFFFFFFFFFFFFFFFFFFFFCD
S1132F10FFFFFFFFFFFFFFFFFFFFFFFFFFFFFFFFBD
S1132F20FFFFFFFFFFFFFFFFFFFFFFFFFFFFFFFFAD
S1133500FFFFFE17F800F800F800F800FB8CFFFF3F
S1133510FFFFFFFFFFFFFFFFFFFFFFFFFFFFFFFFB7
S1133520FFFFFFFFFFFFFFFFFFFFFFFFFFFFFFFFA7
S1133530FFFFFFFFFFFFFFFFFFFFFFFFFFFFFFFF97
S1133540FFFFFFFFFFFFFFFFFFFFFFFFFFFFFFFF87
S1133550FFFFFFFFFFFFFFFFFFFFFFFFFFFFFFFF77
S1133560FFFFFFFFFFFFFFFFFFFFFFFFFFFFFFFF67
S1133570FFFFFFFFFFFFFFFFFFFFFFFFFFFFFFFF57
S1133580FFFFFFFFFFFFFFFFFFFFFFFFFFFFFFFF47
S1133590FFFFFFFFFFFFFFFFFFFFFFFFFFFFFFFF37
S11335A0FFFFFFFFFFFFFFFFFFFFFFFFFFFFFFFF27
S11335B0FFFFFFFFFFFFFFFFFFFFFFFFF800F80023
S11335C0F800F800F800F800F800F800F800F80037
S11335D0F800F800FFFFFFFFFFFFFFFFFFFFFFFF03
S11335E0FFFFFFFFFFFFFFFFFFFFFFFFFFFFFFFFE7
S11335F0FFFFFFFFFFFFFFFFFFFFFFFFFFFFFFFFD7
S1133600FFFFFFFFFFFFFFFFFFFFFFFFFFFFFFFFC6
S1133610FFFFFFFFFFFFFFFFFFFFFFFFFFFFFFFFB6
S1133620FFFFFFFFFFFFFFFFFFFFFFFFFFFFFFFFA6
S1133630FFFFFFFFFFFFFFFFFFFFFFFFFFFFFFFF96
S1133640FFFFFFFFFFFFFFFFFFFFFFFFFFFFFFFF86
S1133650FFFFFFFFFFFFFFFFFFFFFFFFFFFFFFFF76
S1133660FFFFFFFFFFFFFFFFFFFFFFFFFFFFFFFF66
S1133670FFFFFFFFFFFFFFFFF800F800F800F8006E
S1133680F800F800F800F800F800F800F800F80076
S1133690F800F800F800F800FFFFFFFFFFFFFFFF4E
S11336A0FFFFFFFFFFFFFFFFFFFFFFFFFFFFFFFF26
S11336B0FFFFFFFFFFFFFFFFFFFFFFFFFFFFFFFF16
S11336C0FFFFFFFFFFFFFFFFFFFFFFFFFFFFFFFF06
S11336D0FFFFFFFFFFFFFFFFFFFFFFFFFFFFFFFFF6
S11336E0FFFFFFFFFFFFFFFFFFFFFFFFFFFFFFFFE6
S11336F0FFFFFFFFFFFFFFFFFFFFFFFFFFFFFFFFD6
S1133700FFFFFFFFFFFFFFFFFFFFFFFFFFFFFFFFC5
S1133710FFFFFFFFFFFFFFFFFFFFFFFFFFFFFFFFB5
S1133720FFFFFFFFFFFFFFFFFFFFFFFFFFFFFFFFA5
S1133730FFFFFFFFFCB2F800F800F800F800F80003
S1133740F800F800F800F800F800F800F800F800B5
S1133750F800F800F800F800F800F800FFFFFFFF99
S1133760FFFFFFFFFFFFFFFFFFFFFFFFFFFFFFFF65
S1133770FFFFFFFFFFFFFFFFFFFFFFFFFFFFFFFF55
S1133780FFFFFFFFFFFFFFFFFFFFFFFFFFFFFFFF45
S1133790FFFFFFFFFFFFFFFFFFFFFFFFFFFFFFFF35
S11337A0FFFFFFFFFFFFFFFFFFFFFFFFFFFFFFFF25
S11337B0FFFFFFFFFFFFFFFFFFFFFFFFFFFFFFFF15
S11337C0FFFFFFFFFFFFFFFFFFFFFFFFFFFFFFFF05
S11337D0FFFFFFFFFFFFFFFFFFFFFFFFFFFFFFFFF5
S11337E0FFFFFFFFFFFFFFFFFFFFFFFFFFFFFFFFE5
S11337F0FFFFF842F800F800F800F800F800F800BD
S1133800FCB3FFFFFFFFFFFFFFFFFFFFFFFFFEBA59
S1133810F800F800F800F800F800F800F800FFFFDE
S1133820FFFFFFFFFFFFFFFFFFFFFFFFFFFFFFFFA4
S1133830FFFFFFFFFFFFFFFFFFFFFFFFFFFFFFFF94
S1133840FFFFFFFFFFFFFFFFFFFFFFFFFFFFFFFF84
S1133850FFFFFFFFFFFFFFFFFFFFFFFFFFFFFFFF74
S1133860FFFFFFFFFFFFFFFFFFFFFFFFFFFFFFFF64
S1133870FFFFFFFFFFFFFFFFFFFFFFFFFFFFFFFF54
S1133880FFFFFFFFFFFFFFFFFFFFFFFFFFFFFFFF44
S1133890FFFFFFFFFFFFFFFFFFFFFFFFFFFFFFFF34
S11338A0FFFFFFFFFFFFFFFFFFFFFFFFFFFFFFFF24
S11338B0F800F800F800F800F800F800FFFFFFFF38
S11338C0FFFFFFFFFFFFFFFFFFFFFFFFFFFFFFFF04
S11338D0FFFFFFFFF800F800F800F800F800F80018
S11338E0FFFFFFFFFFFFFFFFFFFFFFFFFFFFFFFFE4
S11338F0FFFFFFFFFFFFFFFFFFFFFFFFFFFFFFFFD4
S1133900FFFFFFFFFFFFFFFFFFFFFFFFFFFFFFFFC3
S1133910FFFFFFFFFFFFFFFFFFFFFFFFFFFFFFFFB3
S1133920FFFFFFFFFFFFFFFFFFFFFFFFFFFFFFFFA3
S1133930FFFFFFFFFFFFFFFFFFFFFFFFFFFFFFFF93
S1133940FFFFFFFFFFFFFFFFFFFFFFFFFFFFFFFF83
S1133950FFFFFFFFFFFFFFFFFFFFFFFFFFFFFFFF73
S1133960FFFFFFFFFFFFFFFFFFFFFFFFFFFFFBAFB7
S1133970F800F800F800F800F946FFFFFFFFFFFF2A
S1133980FFFFFFFFFFFFFFFFFFFFFFFFFFFFFFFF43
S1133990FFFFFFFFFFFFFFFFF800F800F800F8004B
S11339A0F800FFFFFFFFFFFFFFFFFFFFFFFFFFFF29
S11339B0FFFFFFFFFFFFFFFFFFFFFFFFFFFFFFFF13
S11339C0FFFFFFFFFFFFFFFFFFFFFFFFFFFFFFFF03
S11339D0FFFFFFFFFFFFFFFFFFFFFFFFFFFFFFFFF3
S11339E0FFFFFFFFFFFFFFFFFFFFFFFFFFFFFFFFE3
S11339F0FFFFFFFFFFFFFFFFFFFFFFFFFFFFFFFFD3
S1133A00FFFFFFFFFFFFFFFFFFFFFFFFFFFFFFFFC2
S1133A10FFFFFFFFFFFFFFFFFFFFFFFFFFFFFFFFB2
S1133A20FFFFFFFFFFFFFFFFFFFFFFFFFFFFF800A8
S1133A30F800F800F800FDF9FFFFFFFFFFFFFFFFAC
S1133A40FFFFFFFFFFFFFFFFFFFFFFFFFFFFFFFF82
S1133A50FFFFFFFFFFFFFFFFFFFFF800F800F80084
S1133A60F800FCD1FFFFFFFFFFFFFFFFFFFFFFFF99
S1133A70FFFFFFFFFFFFFFFFFFFFFFFFFFFFFFFF52
S1133A80FFFFFFFFFFFFFFFFFFFFFFFFFFFFFFFF42
S1133A90FFFFFFFFFFFFFFFFFFFFFFFFFFFFFFFF32
S1133AA0FFFFFFFFFFFFFFFFFFFFFFFFFFFFFFFF22
S1133AB0FFFFFFFFFFFFFFFFFFFFFFFFFFFFFFFF12
S1133AC0FFFFFFFFFFFFFFFFFFFFFFFFFFFFFFFF02
S1133AD0FFFFFFFFFFFFFFFFFFFFFFFFFFFFFFFFF2
S1133AE0FFFFFFFFFFFFFFFFFFFFFFFFF800F800EE
S1133AF0F800F800F9C5FFFFFFFFFFFFFFFFFFFF1E
S1133B00FFFFFFFFFFFFFFFFFF9BFFFFFFFFFFFF25
S1133B10FFFFFFFFFFFFFFFFFFFFFFFFF800F800BD
S1133B20F8000000000000000000FFFFFFFFFFFF9F
S1133B30FFFFFFFFFFFFFFFFFFFFFFFFFFFFFFFF91
S1133B40FFFFFFFFFFFFFFFFFFFF0000000000007B
S1133B5018C3FFFFFFFFFFFFFFFFFFFFFFFFFFFF94
S1133B60FFFFFFFFFFFFFFFFFFFFFFFFFFFFFFFF61
S1133B70FFFFFFFFFFFFFFFFFFFFFFFFFFFFFFFF51
S1133B80FFFFFFFFFFFFFFFFFFFFFFFFFFFFFFFF41
S1133B90FFFFFFFFFFFFFFFFFFFFFFFFFFFFFFFF31
S1133BA0FFFFFFFFFFFFFFFFFFFFFFFFF800F8002D
S1133BB0F800F800FFFFFFFFFFFFFFFFFFFFFFFF1D
S1133BC0FFFFF800F800F800F800F800F9A8FFFF7C
S1133BD0FFFFFFFFFFFFFFFFFFFFFFFFFA08F800F3
S1133BE0F8000000000000000000FFFFFFFFFFFFDF
S1133BF0FFFFFFFFFFFFFFFFFFFFFFFFFFFFFFFFD1
S1133C00FFFFFFFFFFFFFFFFFFFF000000000000BA
S1133C1020E3FFFFFFFFFFFFFFFFFFFFFFFFFFFFAB
S1133C20FFFFFFFFFFFFFFFF0000000000008C10FC
S1133C30FFFFFFFFFFFFFFFFFFFFFFFFFFFFFFFF90
S1133C40FFFFFFFFFFFFFFFFFFFFFFFFFFFFFFFF80
S1133C50FFFFFFFFFFFFFFFFFFFFFFFFFFFFFFFF70
S1133C60FFFFFFFFFFFFFFFFFFFFF800F800F80072
S1133C70F800FFFFFFFFFFFFFFFFFFFFFFFFFFDE77
S1133C80F800F800F800F800F800F800F800FFFF6A
S1133C90FFFFFFFFFFFFFFFFFFFFFFFFFFFFF80036
S1133CA0F8000000000000000000FFFFFFFFFFFF1E
S1133CB0FFFFFFFFFFFFFFFFFFFFFFFFFFFFFFFF10
S1133CC0FFFFFFFFFFFFFFFFFFFF000000000000FA
S1133CD018C3FFFFFFFFFFFFFFFFFFFFFFFFFFFF13
S1133CE0FFFFFFFFFFFFFFFF000000000000841044
S1133CF0FFFFFFFFFFFFFFFFFFFFFFFFFFFFFFFFD0
S1133D00FFFFFFFFFFFFFFFFFFFFFFFFFFFFFFFFBF
S1133D10FFFFFFFFFFFFFFFFFFFFFFFFFFFFFFFFAF
S1133D20FFFFFFFFFFFFFFFFFFFFF800F800F800B1
S1133D30F800FFFFFFFFFFFFFFFFFFFFFFFFF8009B
S1133D40F800F800F800F800F800F800F800F800AF
S1133D50FFFFFFFFFFFFFFFFFFFFFFFFFFFFFACBA8
S1133D60F8000000000000000000FFFFFFFFFFFF5D
S1133D70FFFFFFFFFFFFFFFFFFFFFFFFFFFFFFFF4F
S1133D80FFFFFFFFFFFFFFFFFFFF00000000000039
S1133D9018C3FFFFFFFFFFFFFFFFFFFFFFFFFFFF52
S1133DA0FFFFFFFFFFFFFFFF00000000000083F0A4
S1133DB0FFFFFFFFFFFFFFFFFFFFFFFFFFFFFFFF0F
S1133DC0FFFFFFFFFFFFFFFFFFFFFFFFFFFFFFFFFF
S1133DD0FFFFFFFFFFFFFFFFFFFFFFFFFFFFFFFFEF
S1133DE0FFFFFFFFFFFFFFFFFFFFF800F800F800F1
S1133DF0FC91FFFFFFFFFFFFFFFFFFFFFFFFF80046
S1133E00F800F800F800F800F800FA28FFFFFFFFB8
S1133E10FFFFFFFFFFFFFFFFFFFFFFFFFFFFFFFFAE
S1133E20F8000000000000000000FFFFFFFFFFFF9C
S1133E30FFFFFFFF5A8A000000000000000000009E
S1133E40E6FBFFFFFFFFFFFFFFFF00000000000095
S1133E5018C3FFFFFFFFFFFFFFFF316531653165C9
S1133E602945FFFF2945210400000000000000004F
S1133E70316531653145FFFFFFFFFFFFFFFFCE597D
S1133E80000000000000000000005A8AFFFFFFFF4E
S1133E90FFFFFFFFFFFF3165316531459CB3FFFF35
S1133EA0FFFF5ACB1882FFFFFC50F800F800F8001F
S1133EB0FFFFFFFFFFFFFFFFFFFFFFFFFFFFF80014
S1133EC0F800F820FFDFFFFFFFFFFFFFFFFFFFFF0A
S1133ED0FFFFFFFFFFFFFFFFFFFFFFFFFFFFFFFFEE
S1133EE0F8000000000000000000FFFFFFFFFFFFDC
S1133EF0B596000000000000000000000000000073
S1133F0000000000FFFFFFFFFFFF000000000000B3
S1133F1018C3FFFFFFFFFFFF0000000000000000C8
S1133F20FFFFFFFF00000000000000000000000091
S1133F30000000000000FFFFFFFFFFFF0000000083
S1133F400000000000000000000000000000D69AFD
S1133F50FFFFFFFFFFFF000000000000526918C3CD
S1133F60000000000000FFFFF800F800F800F8006F
S1133F70FFFFFFFFFFFFFFFFFFFFFFFFFFFFFFFF4D
S1133F80FFFFFFFFFFFFFFFFFFFFFFFFFFFFFFFF3D
S1133F90FFFFFFFFFFFFFFFFFFFFFFFFFC71F800C4
S1133FA0F8000000000000000000FFFFFFFFEF7DAD
S1133FB00000000000000000FFFFFFFF0000000001
S1133FC000000000BDD7FFFFFFFF0000000000005D
S1133FD018C3FFFFFFFF0000000000000000EF5DBA
S1133FE0FFFFFFFF000000000000000000000000D1
S1133FF0000000000000FFFFFFFF000000000000C1
S1134000000000002945000000000000000000003E
S1134010FFFFFFFFFFFF00000000000000000000A2
S1134020000000000000FFFFF800F800F800F800AE
S1134030FFFFFFFFFFFFFFFFFFFFFFFFFFFFFFFF8C
S1134040FFFFFFFFFFFFFFFFFFFFFFFFFFFFFFFF7C
S1134050FFFFFFFFFF9DF800F800F800F800F800EC
S1134060F8000000000000000000FFFFFFFF000058
S1134070000000000000FFFFFFFFFFFFFFFF000044
S1134080000000000000FFFFFFFF00000000000030
S113409018C3FFFF00000000000000006B4DFFFF8D
S11340A0FFFFFFFFFFFFFFFF000000000000841080
S11340B0FFFFFFFFFFFFFFFFFFFF00000000000006
S11340C00000FFFFFFFFFFFFFFFF000000000000F4
S11340D00000FFFFFFFF00000000000000000000E0
S11340E0000000000000FFFFF800F800F800F800EE
S11340F0FFFFFFFFFFFFFFFFFFFFFFFFFFFFFFFFCC
S1134100FFFFFFFFFFFFFFFFFFFFFFFFFFFFF800C1
S1134110F800F800F800F800F800F800F800F800DB
S1134120F8000000000000000000FFFFFFFF000097
S113413000000000F79EFFFFFFFFFFFFFFFF20C30B
S1134140000000000000FFFFFFFF0000000000006F
S113415020C3736D0000000000000000FFFFFFFF9C
S1134160FFFFFFFFFFFFFFFF0000000000008410BF
S1134170FFFFFFFFFFFFFFFF000000000000000043
S1134180FFFFFFFFFFFFFFFFFFFF00000000000035
S11341900000FFFFFFFF0000000000004A69FFFF6E
S11341A0FFFFFFFFFFFFFFFFF800F800F800F80033
S11341B0FFFFFFFFFFFFFFFFFFFFFFFFFFFFFFFF0B
S11341C0FFFFFFFFFFFFF9A6F800F800F800F80072
S11341D0F800F800F800F800F800F800F863FFFFB2
S11341E0F8000000000000000000FFFFF77D000061
S11341F000000000000000000000000000000000BB
S1134200000000000000FFFFFFFF000000000000AE
S113421000000000000000000000FFFFFFFFFFFFA0
S1134220FFFFFFFFFFFFFFFF0000000000008410FE
S1134230FFFFFFFFFFFFFFFF000000000000000082
S1134240FFFFFFFFFFFFFFFFFFFF00000000000074
S11342500000FFFFFFFF0000000000004A49FFFFCD
S1134260FFFFFFFFFFFFFFFFFE9AF800F800F800D2
S1134270FFFFFFFFFFFFFFFFFFFFFFFFFFFFFFFF4A
S1134280F800F800F800F800F800F800F800F8006A
S1134290F800F800F800F800F800F8C2FFFFFFFF8C
S11342A0F8000000000000000000FFFFD67A0000C4
S11342B000000000000000000000000000000000FA
S11342C0000000000000FFFFFFFF000000000000EE
S11342D0000000000000000000000000FFFFFFFFDE
S11342E0FFFFFFFFFFFFFFFF00000000000084103E
S11342F0FFFFFFFFFFFFFFFF0000000000000000C2
S1134300FFFFFFFFFFFFFFFFFFFF000000000000B3
S11343100000FFFFFFFF0000000000004A49FFFF0C
S1134320FFFFFFFFFFFFFFFFFFFFF800F800F800AB
S1134330F9E7FFFFFFFFFFFFFFFFFFFFFFFFFFFFA7
S1134340FEDAF800F800F800F800F800F800F800C9
S1134350F800F800F800F800FD14FFFFFFFFFFFF6E
S1134360F8000000000000000000FFFFFFFF000055
S113437000000000B596FFFFFFFFFFFFFFFFFFFFF8
S1134380FFFFFFFFFFFFFFFFFFFF00000000000033
S11343900000FFFF0000000000000000EF5DFFFFD1
S11343A0FFFFFFFFFFFFFFFF0000000000007BEFA7
S11343B0FFFFFFFFFFFFFFFF000000000000000001
S11343C0FFFFFFFFFFFFFFFFFFFF000000000000F3
S11343D00000FFFFFFFF0000000000004A49FFFF4C
S11343E0FFFFFFFFFFFFFFFFFFFFF800F800F800EB
S11343F0F800FFFFFFFFFFFFFFFFFFFFFFFFFFFFCF
S1134400FFFFF8E4F800F800F800F800F800F800FE
S1134410F800F800F800FFFFFFFFFFFFFFFFF800C0
S1134420F8000000000000000000FFFFFFFF000094
S1134430000000000000FFFFFFFFFFFFFFFFFFFF82
S1134440FFFFFFFF6B0CFFFFFFFF000000000000F9
S113445018C3FFFFFFFF0000000000000000FFFF83
S1134460FFFFFFFFFFFFFFFF0000000000005AAA4C
S1134470FFFFFFFFFFFFFFFFAD550000000000003E
S113448083CFFFFFFFFFFFFFFFFF000000000000DE
S11344900000FFFFFFFF0000000000004A49FFFF8B
S11344A0FFFFFFFFFFFFFFFFFFFFF8C4F800F80066
S11344B0F800FD96FFFFFFFFFFFFFFFFFFFFFFFF79
S11344C0FFFFFFFFFFFFF800F800F800F800F80016
S11344D0F923FFFFFFFFFFFFFFFFFFFFFFFFF800D0
S11344E0F8000000000000000000FFFFFFFF2104AF
S11344F0000000000000000083EFFFFFFFFFFFDF6C
S1134500316500000000FFFFFFFF00000000000015
S113451018C3FFFFFFFF18A2000000000000000006
S1134520FFFFFFFFFFFFFFFF00000000000000008F
S1134530F79EFFFF736DFFFFFFFF00000000000008
S113454000009CB3FFFFFFFF00000000000000001C
S1134550A4F3FFFFFFFF0000000000004A49FFFF33
S1134560FFFFFFFFFFFFFFFFFFFFFFFFF800F80063
S1134570F800F800FFFFFFFFFFFFFFFFFFFFFFFF53
S1134580FFFFFFFFFFFFFFFFFFFFFFFFFFFFFFFF37
S1134590FFFFFFFFFFFFFFFFFFFFFFFFF800F80033
S11345A0F8000000000000000000FFFFFFFFFFFF15
S11345B000000000000000000000000000000000F7
S11345C0000000000000FFFFFFFF000000000000EB
S11345D018C3FFFFFFFFFFFF000000000000000002
S11345E0C618FFFFFFFFFFFF0000000000000000EF
S11345F0000000000000FFFFFFFFFFFF00000000BD
S113460000000000000000000000000000000000A6
S1134610FFFFFFFFFFFF0000000000004A49FFFF0B
S1134620FFFFFFFFFFFFFFFFFFFFFFFFF882F80020
S1134630F800F800F800FFFFFFFFFFFFFFFFFFFF98
S1134640FFFFFFFFFFFFFFFFFFFFFFFFFFFFFFFF76
S1134650FFFFFFFFFFFFFFFFFFFFFA89F800F800ED
S1134660F8000000000000000000FFFFFFFFFFFF54
S1134670FFFFAD5500000000000000000000000036
S1134680000000005249FFFFFFFF0000000000008F
S113469018C3FFFFFFFFFFFFFFFF00000000000043
S11346A00000FFFFFFFFFFFFFFFF0000000000000E
S11346B0000000000000FFFFFFFFFFFFFFFF0000FE
S11346C00000000000000000000000006B0CFFFF71
S11346D0FFFFFFFFFFFF0000000000004208FFFF94
S11346E0FFFFFFFFFFFFFFFFFFFFFFFFFFFFF800DC
S11346F0F800F800F800F800FFFFFFFFFFFFFFFFDE
S1134700FFFFFFFFFFFFFFFFFFFFFFFFFFFFFFFFB5
S1134710FFFFFFFFFFFFFFFFFBCEF800F800F800EC
S1134720F800FFFFFFFFFFFFFFFFFFFFFFFFFFFF9B
S1134730FFFFFFFFFFFFFFFFFFFFFFFFFFFFFFFF85
S1134740FFFFFFFFFFFFFFFFFFFFFFFFFFFFFFFF75
S1134750FFFFFFFFFFFFFFFFFFFFFFFFFFFFFFFF65
S1134760FFFFFFFFFFFFFFFFFFFFFFFFFFFFFFFF55
S1134770FFFFFFFFFFFFFFFFFFFFFFFFFFFFFFFF45
S1134780FFFFFFFFF77EFFFFFFFFFFFFFFFFFFFFBE
S1134790FFFFFFFFFFFFFFFFFFFFFFFFFFFFFFFF25
S11347A0FFFFFFFFFFFFFFFFFFFFFFFFFFFFFFFF15
S11347B0F800F800F800F800F800FFFFFFFFFFFF23
S11347C0FFFFFFFFFFFFFFFFFFFFFFFFFFFFFFFFF5
S11347D0FFFFFFFFFFFFF800F800F800F800F80003
S11347E0FB0CFFFFFFFFFFFFFFFFFFFFFFFFFFFFCC
S11347F0FFFFFFFFFFFFFFFFFFFFFFFFFFFFFFFFC5
S1134800FFFFFFFFFFFFFFFFFFFFFFFFFFFFFFFFB4
S1134810FFFFFFFFFFFFFFFFFFFFFFFFFFFFFFFFA4
S1134820FFFFFFFFFFFFFFFFFFFFFFFFFFFFFFFF94
S1134830FFFFFFFFFFFFFFFFFFFFFFFFFFFFFFFF84
S1134840FFFFFFFFFFFFFFFFFFFFFFFFFFFFFFFF74
S1134850FFFFFFFFFFFFFFFFFFFFFFFFFFFFFFFF64
S1134860FFFFFFFFFFFFFFFFFFFFFFFFFFFFFFFF54
S1134870FEBAF800F800F800F800F800F8E4FFFFCA
S1134880FFFFFFFFFFFFFFFFFFFFFFFFFFFFFFFF34
S1134890FFFFFD94F800F800F800F800F800F86154
S11348A0FFFFFFFFFFFFFFFFFFFFFFFFFFFFFFFF14
S11348B0FFFFFFFFFFFFFFFFFFFFFFFFFFFFFFFF04
S11348C0FFFFFFFFFFFFFFFFFFFFFFFFFFFFFFFFF4
S11348D0FFFFFFFFFFFFFFFFFFFFFFFFFFFFFFFFE4
S11348E0FFFFFFFFFFFFFFFFFFFFFFFFFFFFFFFFD4
S11348F0FFFFFFFFFFFFFFFFFFFFFFFFFFFFFFFFC4
S1134900FFFFFFFFFFFFFFFFFFFFFFFFFFFFFFFFB3
S1134910FFFFFFFFFFFFFFFFFFFFFFFFFFFFFFFFA3
S1134920FFFFFFFFFFFFFFFFFFFFFFFFFFFFFFFF93
S1134930FFFFFF9EF800F800F800F800F800F80008
S1134940F800FB2CFF7EFFFFFFFFFFFFFD13F800C5
S1134950F800F800F800F800F800F800F9C6FFFFC6
S1134960FFFFFFFFFFFFFFFFFFFFFFFFFFFFFFFF53
S1134970FFFFFFFFFFFFFFFFFFFFFFFFFFFFFFFF43
S1134980FFFFFFFFFFFFFFFFFFFFFFFFFFFFFFFF33
S1134990FFFFFFFFFFFFFFFFFFFFFFFFFFFFFFFF23
S11349A0FFFFFFFFFFFFFFFFFFFFFFFFFFFFFFFF13
S11349B0FFFFFFFFFFFFFFFFFFFFFFFFFFFFFFFF03
S11349C0FFFFFFFFFFFFFFFFFFFFFFFFFFFFFFFFF3
S11349D0FFFFFFFFFFFFFFFFFFFFFFFFFFFFFFFFE3
S11349E0FFFFFFFFFFFFFFFFFFFFFFFFFFFFFFFFD3
S11349F0FFFFFFFFFFFFF800F800F800F800F800E1
S1134A00F800F800F800F800F800F800F800F800E2
S1134A10F800F800F800F800F800FF5BFFFFFFFF64
S1134A20FFFFFFFFFFFFFFFFFFFFFFFFFFFFFFFF92
S1134A30FFFFFFFFFFFFFFFFFFFFFFFFFFFFFFFF82
S1134A40FFFFFFFFFFFFFFFFFFFFFFFFFFFFFFFF72
S1134A50FFFFFFFFFFFFFFFFFFFFFFFFFFFFFFFF62
S1134A60FFFFFFFFFFFFFFFFFFFFFFFFFFFFFFFF52
S1134A70FFFFFFFFFFFFFFFFFFFFFFFFFFFFFFFF42
S1134A80FFFFFFFFFFFFFFFFFFFFFFFFFFFFFFFF32
S1134A90FFFFFFFFFFFFFFFFFFFFFFFFFFFFFFFF22
S1134AA0FFFFFFFFFFFFFFFFFFFFFFFFFFFFFFFF12
S1134AB0FFFFFFFFFFFFFFFFFE78F800F800F8009C
S1134AC0F800F800F800F800F800F800F800F80022
S1134AD0F800F800F800F966FFFFFFFFFFFFFFFF93
S1134AE0FFFFFFFFFFFFFFFFFFFFFFFFFFFFFFFFD2
S1134AF0FFFFFFFFFFFFFFFFFFFFFFFFFFFFFFFFC2
S1134B00FFFFFFFFFFFFFFFFFFFFFFFFFFFFFFFFB1
S1134B10FFFFFFFFFFFFFFFFFFFFFFFFFFFFFFFFA1
S1134B20FFFFFFFFFFFFFFFFFFFFFFFFFFFFFFFF91
S1134B30FFFFFFFFFFFFFFFFFFFFFFFFFFFFFFFF81
S1134B40FFFFFFFFFFFFFFFFFFFFFFFFFFFFFFFF71
S1134B50FFFFFFFFFFFFFFFFFFFFFFFFFFFFFFFF61
S1134B60FFFFFFFFFFFFFFFFFFFFFFFFFFFFFFFF51
S1134B70FFFFFFFFFFFFFFFFFFFFFFFFFFFFF80047
S1134B80F800F800F800F800F800F800F800F80061
S1134B90F800FE79FFFFFFFFFFFFFFFFFFFFFFFFAE
S1134BA0FFFFFFFFFFFFFFFFFFFFFFFFFFFFFFFF11
S1134BB0FFFFFFFFFFFFFFFFFFFFFFFFFFFFFFFF01
S1134BC0FFFFFFFFFFFFFFFFFFFFFFFFFFFFFFFFF1
S1134BD0FFFFFFFFFFFFFFFFFFFFFFFFFFFFFFFFE1
S11352E0FFFFFFFFFFFFFFFF11241FBECFEFD8E03A
S11352F0DEBFCDBF21E0A0E0B1E001C01D92A3312B
S1135300B207E1F70E94F9330C9440350C94000085
S1135310882314F42B9A01C02B982D9A2D9886FF7C
S113532002C02B9A01C02B982D9A2D9885FF02C09C
S11353302B9A01C02B982D9A2D9884FF02C02B9A8A
S113534001C02B982D9A2D9883FF02C02B9A01C07F
S11353502B982D9A2D9882FF02C02B9A01C02B986E
S11353602D9A2D9881FF02C02B9A01C02B982D9A5B
S11353702D9880FF02C02B9A01C02B982D9A2D984E
S113538008950F931F93CF93289882E20E9488294F
S113539080E00E94882980E00E9488298AE00E9497
S11353A0882904E011E0CFE3F8018081FC2FF81B89
S11353B08F2F0E94882980E00E94882980E00E9423
S11353C0882980E00E94882980E00E94882980E062
S11353D00E94882980E00E9488298FE99FE0019734
S11353E0F1F700C0000082E20E94882980E00E9458
S11353F08829F8018081FC2FF81B8F2F0E948829AF
S11354008AE00E9488298FE30E9488298FEF0E94F6
S113541088298FEF0E9488298FEF0E9488298FEFB7
S11354200E9488298FEF0E9488298FEF0E94882983
S11354308FE99FE00197F1F700C0000085B185B9BD
S113544082E20E9488298EE00E94882980E00E94DE
S1135450882988E10E9488290BE011E0F801808105
S1135460FC2FF81B8F2F0E94882980E00E94882936
S113547080E00E94882980E00E94882980E00E94C0
S1135480882980E00E94882980E00E9488298FE989
S11354909FE00197F1F700C0000082E20E94882992
S11354A08EE00E948829F8018081FC2FF81B8F2F41
S11354B00E94882988E10E9488298FE30E94882914
S11354C08FEF0E9488298FEF0E9488298FEF0E9416
S11354D088298FEF0E9488298FEF0E9488298FEFF7
S11354E00E9488298FE99FE00197F1F700C000002E
S11354F0289882E20E9488298CE10E94882980E011
S11355000E94882986E20E9488290FE011E0F801B0
S11355108081FC2FF81B8F2F0E94882980E00E9435
S1135520882980E00E94882980E00E94882980E000
S11355300E94882980E00E94882980E00E948829AE
S11355408FE99FE00197F1F700C0000082E20E941A
S113555088298CE10E948829F8018081FC2FF81B9E
S11355608F2F0E94882986E20E9488298FE30E9457
S113557088298FEF0E9488298FEF0E9488298FEF56
S11355800E9488298FEF0E9488298FEF0E94882922
S11355908FEF0E9488298FE99FE00197F1F700C0FF
S11355A00000289882E20E9488298AE20E948829C1
S11355B080E00E94882984E30E94882906E011E0A3
S11355C0F8018081FC2FF81B8F2F0E94882980E02E
S11355D00E94882980E00E94882980E00E9488290E
S11355E080E00E94882980E00E94882980E00E944F
S11355F088298FE99FE00197F1F700C0000082E25B
S11356000E9488298AE20E948829F8018081FC2F5F
S1135610F81B8F2F0E94882984E30E9488298FE336
S11356200E9488298FEF0E9488298FEF0E94882981
S11356308FEF0E9488298FEF0E9488298FEF0E94A4
S113564088298FEF0E9488298FE99FE00197F1F75D
S113565000C00000289882E20E94882988E30E9402
S1135660882980E00E94882982E40E9488290DE02C
S113567011E0F8018081FC2FF81B8F2F0E948829EC
S113568080E00E94882980E00E94882980E00E94AE
S1135690882980E00E94882980E00E94882980E08F
S11356A00E9488298FE99FE00197F1F700C000006C
S11356B082E20E94882988E30E948829F801808177
S11356C0FC2FF81B8F2F0E94882982E40E948829CE
S11356D08FE30E9488298FEF0E9488298FEF0E9410
S11356E088298FEF0E9488298FEF0E9488298FEFE5
S11356F00E9488298FEF0E9488298FE99FE00197F3
S1135700F1F700C00000289882E20E94882986E40C
S11357100E94882980E00E94882980E50E948829C7
S113572002E011E0F8018081FC2FF81B8F2F0E940A
S1135730882980E00E94882980E00E94882980E0EE
S11357400E94882980E00E94882980E00E9488299C
S113575080E00E9488298FE99FE00197F1F700C05B
S1135760000082E20E94882986E40E948829F801C8
S11357708081FC2FF81B8F2F0E94882980E50E94CE
S113578088298FE30E9488298FEF0E9488298FEF50
S11357900E9488298FEF0E9488298FEF0E94882910
S11357A08FEF0E9488298FEF0E9488298FE99FE05C
S11357B00197F1F700C00000289882E20E9488292E
S11357C084E50E94882980E00E9488298EE50E9451
S11357D0882901E111E0F8018081FC2FF81B8F2F4B
S11357E00E94882980E00E94882980E00E948829FC
S11357F080E00E94882980E00E94882980E00E943D
S1135800882980E00E9488298FE99FE00197F1F7B9
S113581000C0000082E20E94882984E50E94882951
S1135820F8018081C81B8C2F0E9488298EE50E9474
S113583088298FE30E9488298FEF0E9488298FEF9F
S11358400E9488298FEF0E9488298FEF0E9488295F
S11358508FEF0E9488298FEF0E9488298FE99FE0AB
S11358600197F1F700C00000CF911F910F910895A7
S1135870289882E20E94882980E00E94882980E09A
S11358800E9488298FE50E9488298FE30E94882935
S11358908FEF0E9488298FEF0E9488298FEF0E9442
S11358A088298FEF0E9488298FEF0E9488298FEF23
S11358B00E9488290895289885E20E94882980E01A
S11358C00E94882980E00E9488298FE50E94882907
S11358D08FE30E9488298FE99FE00197F1F700C0C8
S11358E0000008950F931F93CF93DF93289AC8EE77
S11358F0DEE208EE12E5FE0184910E9488292196D9
S1135900C017D107C1F7DF91CF911F910F9108956F
S11359100F931F93CF93DF93289AC8E6D0E008EE45
S11359201EE2FE0184910E9488292196C017D107A6
S1135930C1F7DF91CF911F910F910895EAE7F0E04D
S113594087E0808380818068808381E480937C0009
S11359500895ECE7F0E09081907F90839081892B0B
S11359608083EAE7F0E0808180648083808184FF23
S1135970FDCFEAE7F0E08081806180838091780048
S1135980909179000895429A419A8FEC97E001979B
S1135990F1F700C0000041988FEC97E00197F1F710
S11359A000C000004298419A8FEC97E00197F1F70C
S11359B000C0000041988FEC97E00197F1F700C018
S11359C0000080E00E94A92C813C910598F0805C45
S11359D091098E3091054CF06DE070E00E9418350D
S11359E0709305016093040109C01092050110929F
S11359F0040104C01092050110920401419A8FEC35
S1135A0097E00197F1F700C0000041988FEC97E010
S1135A100197F1F700C0000080E00E94A92C813CAE
S1135A20910598F0805C91098E3091054CF06DE001
S1135A3070E00E94183570930C0160930B0109C04B
S1135A4010920C0110920B0104C010920C011092E0
S1135A500B01419A8FEC97E00197F1F700C0000029
S1135A6041988FEC97E00197F1F700C0000080E0C7
S1135A700E94A92C813C910598F0805C91098E309C
S1135A8091054CF06DE070E00E94183570931001A0
S1135A9060930F0109C01092100110920F0104C00D
S1135AA01092100110920F01419A8FEC97E0019728
S1135AB0F1F700C0000041988FEC97E00197F1F7EF
S1135AC000C0000080E00E94A92C813C910598F060
S1135AD0805C91098E3091054CF06DE070E00E947D
S1135AE01835709307016093060109C010920701ED
S1135AF01092060104C01092070110920601419A07
S1135B008FEC97E00197F1F700C0000041988FEC0B
S1135B1097E00197F1F700C0000080E00E94A92CF3
S1135B20813C910598F0805C91098E3091054CF090
S1135B306DE070E00E94183570930E0160930D01C2
S1135B4009C010920E0110920D0104C010920E01B2
S1135B5010920D01419A8FEC97E00197F1F700C084
S1135B60000041988FEC97E00197F1F700C0000026
S1135B7080E00E94A92C813C910598F0805C9109F9
S1135B808E3091054CF06DE070E00E9418357093F2
S1135B9003016093020109C01092030110920201F3
S1135BA004C01092030110920201419A8FEC97E015
S1135BB00197F1F700C0000041988FEC97E001973E
S1135BC0F1F700C0000080E00E94A92C813C9105FF
S1135BD098F0805C91098E3091054CF06DE070E096
S1135BE00E941835709312016093110109C010923C
S1135BF012011092110104C01092120110921101AD
S1135C00419A8FEC97E00197F1F700C000000895E6
S1135C100F931F93CF93DF93082F162FD42F403465
S1135C200CF0DFE3289882E20E948829802F0E94EA
S1135C30882980E00E948829812F0E948829CFE347
S1135C40CD1B8C2F0E94882980E00E94882980E047
S1135C500E94882980E00E94882980E00E94882987
S1135C6080E00E94882980E00E9488298FE99FE0D3
S1135C700197F1F700C00000D43244F582E20E949B
S1135C808829802F0E9488298C2F0E948829812F9F
S1135C900E9488298FE30E94882980E00E94882935
S1135CA08FEF0E94882980E00E94882980E00E946A
S1135CB088298FEF0E94882980E00E9488298FE933
S1135CC09FE00197F1F700C0000077C082E20E94D4
S1135CD08829802F0E9488298CE10E948829812F9D
S1135CE00E9488298FE30E94882980E00E948829E5
S1135CF08FEF0E94882980E00E94882980E00E941A
S1135D0088298FEF0E94882980E00E9488298FE9E2
S1135D109FE00197F1F700C0000082E20E94882909
S1135D20802F0E9488298C2F0E948829812F0E940D
S1135D3088298DE10E9488298FEF0E9488298FEF9E
S1135D400E94882980E00E9488298FEF0E94882978
S1135D508FEF0E94882980E00E9488298FE99FE0C4
S1135D600197F1F700C00000D7333CF182E20E94B2
S1135D708829802F0E9488298C2F0E948829812FAE
S1135D800E9488298AE00E9488298FEF0E9488292E
S1135D9080E00E94882980E00E9488298FEF0E9479
S1135DA0882980E00E94882980E00E9488298FE960
S1135DB09FE00197F1F700C00000DF91CF911F91A0
S1135DC00F910895409104016AE080E00E94082E3A
S1135DD040910B0168E18EE00E94082E40910F0172
S1135DE066E28CE10E94082E4091060164E38AE297
S1135DF00E94082E40910D0162E488E30E94082E5F
S1135E004091020160E586E40E94082E4091110150
S1135E106EE584E50E94082E08950F931F93CF9397
S1135E20289882E20E94882983E00E94882980E0E1
S1135E300E94882987E00E94882904E011E0CFE3CA
S1135E40F8018081FC2FF81B8F2F0E94882980E0A5
S1135E500E94882980E00E94882980E00E94882985
S1135E6080E00E94882980E00E94882980E00E94C6
S1135E7088298FE99FE00197F1F700C0000082E2D2
S1135E800E94882983E00E948829F8018081FC2FE0
S1135E90F81B8F2F0E94882987E00E9488298FE3AE
S1135EA00E94882980E00E94882980E00E94882935
S1135EB08FEF0E94882980E00E94882980E00E9458
S1135EC088298FEF0E9488298FE99FE00197F1F7D5
S1135ED000C00000289882E20E94882981E10E9483
S1135EE0882980E00E94882985E10E9488290BE0A6
S1135EF011E0F8018081FC2FF81B8F2F0E94882964
S1135F0080E00E94882980E00E94882980E00E9425
S1135F10882980E00E94882980E00E94882980E006
S1135F200E9488298FE99FE00197F1F700C00000E3
S1135F3082E20E94882981E10E948829F8018081F7
S1135F40FC2FF81B8F2F0E94882985E10E94882945
S1135F508FE30E94882980E00E94882980E00E94C3
S1135F6088298FEF0E94882980E00E94882980E098
S1135F700E9488298FEF0E9488298FE99FE001976A
S1135F80F1F700C00000289882E20E9488298FE17E
S1135F900E94882980E00E94882983E20E9488293F
S1135FA00FE011E0F8018081FC2FF81B8F2F0E9475
S1135FB0882980E00E94882980E00E94882980E066
S1135FC00E94882980E00E94882980E00E94882914
S1135FD080E00E9488298FE99FE00197F1F700C0D3
S1135FE0000082E20E9488298FE10E948829F8013A
S1135FF08081FC2FF81B8F2F0E94882983E20E9446
S113600088298FE30E94882980E00E94882980E003
S11360100E9488298FEF0E94882980E00E948829A5
S113602080E00E9488298FEF0E9488298FE99FE0F1
S11360300197F1F700C00000289882E20E948829A5
S11360408DE20E94882980E00E94882981E30E94D1
S1136050882906E011E0F8018081FC2FF81B8F2FBE
S11360600E94882980E00E94882980E00E94882973
S113607080E00E94882980E00E94882980E00E94B4
S1136080882980E00E9488298FE99FE00197F1F731
S113609000C0000082E20E9488298DE20E948829C3
S11360A0F8018081FC2FF81B8F2F0E94882981E33F
S11360B00E9488298FE30E94882980E00E94882911
S11360C080E00E9488298FEF0E94882980E00E9446
S11360D0882980E00E9488298FEF0E9488298FE90F
S11360E09FE00197F1F700C00000289882E20E9427
S11360F088298BE30E94882980E00E9488298FE305
S11361000E9488290DE011E0F8018081FC2FF81B22
S11361108F2F0E94882980E00E94882980E00E94B5
S1136120882980E00E94882980E00E94882980E0F4
S11361300E94882980E00E9488298FE99FE00197C6
S1136140F1F700C0000082E20E9488298BE30E94DC
S11361508829F8018081FC2FF81B8F2F0E94882941
S11361608FE30E9488298FE30E94882980E00E949F
S1136170882980E00E9488298FEF0E94882980E086
S11361800E94882980E00E9488298FEF0E94882934
S11361908FE99FE00197F1F700C00000289882E2A0
S11361A00E94882989E40E94882980E00E94882925
S11361B08DE40E94882902E011E0F8018081FC2F1F
S11361C0F81B8F2F0E94882980E00E94882980E094
S11361D00E94882980E00E94882980E00E94882902
S11361E080E00E94882980E00E9488298FE99FE04E
S11361F00197F1F700C0000082E20E94882989E437
S11362000E948829F8018081FC2FF81B8F2F0E949F
S113621088298DE40E9488298FE30E94882980E0E0
S11362200E94882980E00E9488298FEF0E94882993
S113623080E00E94882980E00E9488298FEF0E94D4
S113624088298FE99FE00197F1F700C000002898A2
S113625082E20E94882987E50E94882980E00E94C2
S113626088298BE50E94882901E111E0F8018081E9
S1136270FC2FF81B8F2F0E94882980E00E94882918
S113628080E00E94882980E00E94882980E00E94A2
S1136290882980E00E94882980E00E9488298FE96B
S11362A09FE00197F1F700C0000082E20E94882974
S11362B087E50E948829F8018081C81B8C2F0E94E1
S11362C088298BE50E9488298FE30E94882980E031
S11362D00E94882980E00E9488298FEF0E948829E3
S11362E080E00E94882980E00E9488298FEF0E9424
S11362F088298FE99FE00197F1F700C00000CF9152
S11363001F910F9108950F931F93CF93289882E2C2
S11363100E94882983E00E94882980E00E948829BD
S113632087E00E94882904E011E0CFE3F80180812E
S1136330FC2FF81B8F2F0E94882980E00E94882957
S113634080E00E94882980E00E94882980E00E94E1
S1136350882980E00E94882980E00E9488298FE9AA
S11363609FE00197F1F700C0000082E20E948829B3
S113637083E00E948829F8018081FC2FF81B8F2F6D
S11363800E94882987E00E9488298FE30E94882937
S11363908FEF0E94882980E00E94882980E00E9473
S11363A088298FEF0E94882980E00E94882980E054
S11363B00E9488298FE99FE00197F1F700C000004F
S11363C0289882E20E94882981E10E94882980E03D
S11363D00E94882985E10E9488290BE011E0F801D8
S11363E08081FC2FF81B8F2F0E94882980E00E9457
S11363F0882980E00E94882980E00E94882980E022
S11364000E94882980E00E94882980E00E948829CF
S11364108FE99FE00197F1F700C0000082E20E943B
S1136420882981E10E948829F8018081FC2FF81BCA
S11364308F2F0E94882985E10E9488298FE30E947A
S113644088298FEF0E94882980E00E94882980E0B3
S11364500E9488298FEF0E94882980E00E94882961
S113646080E00E9488298FE99FE00197F1F700C03E
S11364700000289882E20E9488298FE10E948829DE
S113648080E00E94882983E20E9488290FE011E0BD
S1136490F8018081FC2FF81B8F2F0E94882980E04F
S11364A00E94882980E00E94882980E00E9488292F
S11364B080E00E94882980E00E94882980E00E9470
S11364C088298FE99FE00197F1F700C0000082E27C
S11364D00E9488298FE10E948829F8018081FC2F7D
S11364E0F81B8F2F0E94882983E20E9488298FE35A
S11364F00E9488298FEF0E94882980E00E948829C1
S113650080E00E9488298FEF0E94882980E00E9401
S1136510882980E00E9488298FE99FE00197F1F79C
S113652000C00000289882E20E9488298DE20E941F
S1136530882980E00E94882981E30E94882906E056
S113654011E0F8018081FC2FF81B8F2F0E9488290D
S113655080E00E94882980E00E94882980E00E94CF
S1136560882980E00E94882980E00E94882980E0B0
S11365700E9488298FE99FE00197F1F700C000008D
S113658082E20E9488298DE20E948829F801808194
S1136590FC2FF81B8F2F0E94882981E30E948829F1
S11365A08FE30E9488298FEF0E94882980E00E944F
S11365B0882980E00E9488298FEF0E94882980E042
S11365C00E94882980E00E9488298FE99FE0019732
S11365D0F1F700C00000289882E20E9488298BE32A
S11365E00E94882980E00E9488298FE30E948829DC
S11365F00DE011E0F8018081FC2FF81B8F2F0E9421
S1136600882980E00E94882980E00E94882980E00F
S11366100E94882980E00E94882980E00E948829BD
S113662080E00E9488298FE99FE00197F1F700C07C
S1136630000082E20E9488298BE30E948829F801E5
S11366408081FC2FF81B8F2F0E9488298FE30E94E2
S113665088298FE30E9488298FEF0E94882980E08F
S11366600E94882980E00E9488298FEF0E9488294F
S113667080E00E94882980E00E9488298FE99FE0B9
S11366800197F1F700C00000289882E20E9488294F
S113669089E40E94882980E00E9488298DE40E9470
S11366A0882902E011E0F8018081FC2FF81B8F2F6C
S11366B00E94882980E00E94882980E00E9488291D
S11366C080E00E94882980E00E94882980E00E945E
S11366D0882980E00E9488298FE99FE00197F1F7DB
S11366E000C0000082E20E94882989E40E9488296F
S11366F0F8018081FC2FF81B8F2F0E9488298DE4DC
S11367000E9488298FE30E9488298FEF0E9488299C
S113671080E00E94882980E00E9488298FEF0E94EF
S1136720882980E00E94882980E00E9488298FE9D6
S11367309FE00197F1F700C00000289882E20E94D0
S1136740882987E50E94882980E00E9488298BE5B2
S11367500E94882901E111E0F8018081FC2FF81BD7
S11367608F2F0E94882980E00E94882980E00E945F
S1136770882980E00E94882980E00E94882980E09E
S11367800E94882980E00E9488298FE99FE0019770
S1136790F1F700C0000082E20E94882987E50E9488
S11367A08829F8018081C81B8C2F0E9488298BE5D9
S11367B00E9488298FE30E9488298FEF0E948829EC
S11367C080E00E94882980E00E9488298FEF0E943F
S11367D0882980E00E94882980E00E9488298FE926
S11367E09FE00197F1F700C00000CF911F910F9136
S11367F0089584B18B6284B987B1866087B988B102
S1136800886188B90E949E2C2D9829988FEC97E076
S11368100197F1F700C00000299A8FEC97E00197E7
S1136820F1F700C0000028988DEF0E94882982E1CA
S11368300E9488298FEA0E94882984EA0E94882974
S113684085E10E94882980E00E9488298FE50E94C2
S1136850882985E70E94882980E00E9488298FE39F
S11368600E94882987E80E94882986E00E94882956
S113687083E80E94882980EC0E94882982E80E948B
S1136880882985E60E94882981E80E94882985E96B
S11368900E9488298AE80E94882981E60E94882922
S11368A08BE80E94882982E60E9488298CE80E944D
S11368B0882983E60E94882980EA0E94882982E741
S11368C00E94882981EA0E94882980E00E94882900
S11368D082EA0E94882980E00E94882988EA0E942E
S11368E088298FE30E9488298DEA0E9488298FE8ED
S11368F00E94882980EB0E9488298AE10E948829C5
S113690081EB0E94882981EF0E94882983EB0E94F1
S1136910882980ED0E9488298BEB0E9488298EE3C8
S11369200E9488298EEB0E9488298EE30E94882980
S113693086E20E94882981EA0E9488290E94382CD4
S11369409FEF29E688E1915020408040E1F700C0A4
S11369500000289885E10E94882980E00E94882907
S11369608FE50E94882985E70E94882988E00E9493
S113697088298FE30E9488290E94722C289885E137
S11369800E94882980E00E9488298FE50E94882936
S113699085E70E94882980E00E9488298FE30E946D
S11369A088299FEF2DE389E4915020408040E1F74E
S11369B000C000000E945B2C8FE19EE40197F1F778
S11369C000C000000E94882C9FEF2DE389E49150C1
S11369D020408040E1F700C000000E945B2C8FE162
S11369E09EE40197F1F700C000000E94C32C339984
S11369F005C0349903C00E94C12913C0339905C04E
S1136A00349B03C00E94E22E0CC0339B05C0349912
S1136A1003C00E940D2F05C0339B03C034990E940C
S1136A2083318FE59AEE0197F1F700C00000DDCFC6
S1136A3097FB072E16F4009407D077FD09D00E9427
S1136A402C3507FC05D03EF4909581959F4F089511
S1136A50709561957F4F0895AA1BBB1B51E107C038
S1136A60AA1FBB1FA617B70710F0A61BB70B881FDA
S1136A70991F5A95A9F780959095BC01CD01089569
S1076A80F894FFCFB4
S9030000FC
