S01A0000417564696F5F5370656374726F6D657465722E73726563BC
S11300000C9474290C9491290C9491290C949129A1
S11300100C943A350C9491290C9491290C949129BF
S11300200C9491290C9491290C9491290C94912964
S11300300C9491290C9491290C9491290C94912954
S11300400C9491290C9491290C9491290C94912944
S11300500C9491290C9491290C9491290C94912934
S11300600C9491290C9491290000000000000000D8
S1130070000000000000000000000000000000007C
S1130080000000000000000000000000000000006C
S1130090000000000000000000000000000000005C
S11300A0000000000000000000000000000000004C
S11302E000000000000000000000FFFFFFFFFFFF10
S11302F000000000000000000000000000000000FA
S11303000000000000000000000000000000FFFFEB
S1130310FFFF00210000FFFFFFFF000000000000BE
S113032000000000000000000000000000000000C9
S113033000000000000000000000000000000000B9
S113034000000000000000000000000000000000A9
S11303500000000000000000000000000000000099
S11303600000000000000000000000000000000089
S11303700000000000000000000000000000000079
S11303800000000000000000000000000000000069
S11303900000000000000000000000000000000059
S11303A000000000000000000000FFFFFFFFFFFF4F
S11303B052AA00000000000000000000000000003D
S11303C00000000000000000000000000000FFFF2B
S11303D0FFFF00210000EF7EEF7E00000000000020
S11303E00000000000000000000000000000000009
S11303F000000000000000000000000000000000F9
S113040000000000000000000000000000000000E8
S113041000000000000000000000000000000000D8
S113042000000000000000000000000000000000C8
S113043000000000000000000000000000000000B8
S113044000000000000000000000000000000000A8
S11304500000000000000000000000000000000098
S11304600000000000000000FFFFFFFF0000FFFF8E
S1130470FFFF000000001082FFFFFFFF00000000EC
S1130480FFFFFFFF00000000FFFFFFFFFFFFFFFF74
S1130490FFFF00210000FFFFFFFF0000000000003D
S11304A0FFFFFFFFFFFFFFFF000000000000000050
S11304B00000000000000000000000000000000038
S11304C00000000000000000000000000000000028
S11304D00000000000000000000000000000000018
S11304E00000000000000000000000000000000008
S11304F000000000000000000000000000000000F8
S113050000000000000000000000000000000000E7
S113051000000000000000000000000000000000D7
S11305200000000000000000FFFFFFFF0000FFFFCD
S1130530FFFF000000001082FFFFFFFF000000002B
S1130540FFFFFFFF0000FFFFFFFFFFFFFFFFFFFFB5
S1130550FFFF00210000FFFFFFFF00000000FFFF7E
S1130560FFFFFFFFFFFFFFFFFFFF00000000000091
S11305700000000000000000000000000000000077
S11305800000000000000000000000000000000067
S11305900000000000000000000000000000000057
S11305A00000000000000000000000000000000047
S11305B00000000000000000000000000000000037
S11305C00000000000000000000000000000000027
S11305D00000000000000000000000000000000017
S11305E0000000000000FFFFFFFFFFFF0000FFFF0F
S11305F0FFFFFFFF00001082FFFFFFFF000000006D
S1130600FFFFFFFF0000FFFFFFFF00000000FFFFF0
S1130610FFFF00210000FFFFFFFF0000EF7EFFFF50
S1130620FFFF00000000FFFFFFFF000000000000CC
S113063000000000000000000000000000000000B6
S113064000000000000000000000000000000000A6
S11306500000000000000000000000000000000096
S11306600000000000000000000000000000000086
S11306700000000000000000000000000000000076
S11306800000000000000000000000000000000066
S11306900000000000000000000000000000000056
S11306A0000000000000FFFFFFFFFFFFFFFFFFFF50
S11306B0FFFFFFFF00001082FFFFFFFF00007BF041
S11306C0FFFFFFFF0000FFFFFFFF00000000FFFF30
S11306D0FFFF00210000FFFFFFFF0000FFFFFFFFFF
S11306E0FFFF00000000FFFFFFFF0000000000000C
S11306F000000000000000000000000000000000F6
S113070000000000000000000000000000000000E5
S113071000000000000000000000000000000000D5
S113072000000000000000000000000000000000C5
S113073000000000000000000000000000000000B5
S113074000000000000000000000000000000000A5
S11307500000000000000000000000000000000095
S1130760000000000000FFFFFFFFFFFFFFFFFFFF8F
S1130770FFFFFFFF00000000FFFFFFFFFFFFFFFF81
S1130780FFFFFFFF0000FFFFFFFFFFFF8C51FFFF94
S1130790FFFF00210000FFFFFFFF00000000FFFF3C
S11307A0FFFF0000FFFFFFFFFFFF0000000000004D
S11307B00000000000000000000000000000000035
S11307C00000000000000000000000000000000025
S11307D00000000000000000000000000000000015
S11307E00000000000000000000000000000000005
S11307F000000000000000000000000000000000F5
S113080000000000000000000000000000000000E4
S113081000000000000000000000000000000000D4
S113082000000000FFFFFFFFFFFF000000000000CA
S1130830FFFFFFFFFFFF0000FFFFFFFFFFFF0000C0
S1130840FFFFFFFF00000000FFFFFFFFFFFFFFFFB0
S1130850FFFF00210000FFFFFFFF000000006B4DC1
S1130860FFFFFFFFFFFFFFFF00000000000000008C
S11308700000000000000000000000000000000074
S11308800000000000000000000000000000000064
S11308900000000000000000000000000000000054
S11308A00000000000000000000000000000000044
S1130EB000000000FFFFFFFFFFFFFFFFFFFF7C10AC
S1130EC0000000000000000000000000000000001E
S1130ED0000000000000000000000000000000000E
S1130EE000000000000000000000000000000000FE
S1130EF000000000FFFF00000000000000000000F0
S1130F0000000000000000000000000000000000DD
S1130F1000000000000000000000000000000000CD
S1130F2000000000000000000000000000000000BD
S1130F300000000000000000000000000000FFFFAF
S1130F40FFFF00000000000000000000000000009F
S1130F50000000000000000000000000000000008D
S1130F60000000000000000000000000000000007D
S1130F700000FFFFFFFFFFFF0000FFFFFFFFFFFF79
S1130F80000000000000000000000000000000005D
S1130F90000000000000000000000000000000004D
S1130FA0000000000000000000000000000000003D
S1130FB00000FFFFFFFF0000000000000000000031
S1130FC0000000000000000000000000000000001D
S1130FD0000000000000000000000000000000000D
S1130FE000000000000000000000000000000000FD
S1130FF0000000000000000000000000FFFFFFFFF1
S1131000FFFF0000000000000000000000000000DE
S113101000000000000000000000000000000000CC
S113102000000000000000000000000000000000BC
S11310300000FFFFFFFFFFFFFFFF000000000000B4
S113104000000000FFFFFFFFFFFFFFFFFFFF0000A6
S113105000000000FFFFFFFFFFFFFFFFFFFF000096
S113106000000000FFFFFFFFFFFFFFFF0000000084
S1131070FFFFFFFFFFFFFFFFFFFF0000FFFFFFFF7A
S1131080FFFFFFFF00000000FFFFFFFFFFFFFFFF68
S1131090000000000000FFFFFFFFFFFFFFFFFFFF56
S11310A00000FFFFFFFFFFFF000000000000FFFF44
S11310B0FFFFFFFFFFFFCE590000E71CFFFFFFFF0C
S11310C0FFFFFFFF00000000FFFFFFFFFFFFFFFF28
S11310D0000000000000FFFFFFFFFFFFFFFF000014
S11310E000000000000000000000000000000000FC
S11310F000000000FFFFFFFFFFFFFFFFFFFFFFFFF8
S113110000000000FFFFFFFFFFFFFFFFFFFFFFFFE7
S11311100000FFFFFFFFFFFF0000FFFFFFFFFFFFD7
S11311200000FFFFFFFFFFFFFFFFFFFFFFFF0000C7
S1131130FFFFFFFFFFFFFFFFFFFF0000FFFFFFFFB9
S1131140FFFFFFFF0000FFFFFFFFFFFFFFFFFFFFA9
S1131150FFFF00000000FFFFFFFFFFFFFFFFFFFF97
S1131160FFFFFFFFFFFFFFFFFFFF0000FFFFFFFF89
S1131170FFFF0000FFFFFFFF0000E71CFFFFFFFF72
S1131180FFFFFFFF0000FFFFFFFFD69A0000FFFFF5
S1131190FFFF00000000FFFFFFFFFFFFFFFF000055
S11311A0000000000000000000000000000000003B
S11311B00000000000000000FFFFFFFFFFFFFFFF33
S11311C000000000FFFFFFFF00000000FFFFFFFF23
S11311D00000FFFFFFFF18C318C318E4FFFFFFFF61
S11311E00000FFFFFFFF00000000000000000000FF
S11311F00000FFFFFFFF000000000000FFFFFFFFF3
S1131200000000000000FFFFFFFF00000000FFFFE0
S1131210FFFFFFFF0000FFFFFFFF00000000FFFFD4
S1131220FFFF000010A2FFFFFFFF0000FFFFFFFF12
S113123018C318C3FFFFFFFFFFFF0000FFFFFFFFFE
S1131240FFFF00000000FFFFFFFF18C310C3FFFFF4
S1131250FFFFAD760000FFFFFFFF0000000000006D
S1131260000000000000000000000000000000007A
S11312700000FFFFFFFFFFFF00000000FFFFFFFF74
S1131280E71C0000FFFFFFFF00000000FFFFFFFF5F
S11312900000FFFFFFFFFFFFFFFFFFFFFFFFFFFF58
S11312A00000FFFFFFFF000000000000000000003E
S11312B00000FFFFFFFF000000000000FFFFFFFF32
S11312C0000000000000FFFFFFFF00000000FFFF20
S11312D0FFFFFFFF0000FFFFFFFF00000000FFFF14
S11312E0FFFF00000021FFFFFFFF0000FFFFFFFFE3
S11312F0FFFFFFFFFFFFFFFFFFFF0000FFFFFFFFF8
S1131300FFFF00000000FFFFFFFFFFFFFFFFFFFFE5
S1131310FFFFFFFF0000FFFFFFFF000000000000D1
S113132000000000000000000000000000000000B9
S11313300000FFFFFFFFFFFFF7BEFFFFFFFFFFFF00
S113134000000000FFFFFFFFFFFFFFFFFFFFFFFFA5
S11313500000FFFFFFFFFFFF0000FFFFFFFFFFFF95
S11313600000FFFFFFFFFFFF0000FFFFFFFF000083
S11313700000FFFFFFFFFFFFFFFF0000FFFFFFFF75
S1131380000000000000FFFFFFFFFFFF0000FFFF61
S1131390FFFF00000000FFFFFFFF00000000FFFF51
S11313A0FFFF00000021FFFFFFFF0000FFFFFFFF22
S11313B0FFFF0000FFFFFFFFFFFF0000FFFFFFFF35
S11313C0FFFFFFFF0000FFFFFFFF00000000FFFF23
S11313D0FFFF00000000FFFFFFFF0000000000000F
S11313E000000000000000000000000000000000F9
S11313F000000000FFFFFFFFFFFFFFFFFFFF0000F3
S113140000000000FFFFFFFFFFFFFFFFFFFF0000E2
S113141000000000FFFFFFFFFFFFFFFFFFFF0000D2
S113142000000000FFFFFFFFFFFFFFFFFFFF0000C2
S11314300000FFFFFFFFFFFFFFFF0000FFFFFFFFB4
S11314400000000000000000FFFFFFFFFFFFFFFFA0
S1131450000000000000FFFFFFFF00000000FFFF8E
S1131460FFFF00000021FFFFFFFF00000000FFFF5F
S1131470FFFFFFFFFFFFFFFF000000000000FFFF72
S1131480FFFFFFFF00000000FFFFFFFFFFFFFFFF64
S1131490FFFF00000000FFFFFFFF0000000000004E
S11314A00000000000000000000000000000000038
S11314B00000000000000000000000000000000028
S11314C000000000FFFFFFFF00000000000000001C
S11314D00000000000000000000000000000000008
S11314E000000000000000000000000000000000F8
S11314F000000000000000000000000000000000E8
S113150000000000000000000000000000000000D7
S113151000000000000000000000000000000000C7
S113152000000000000000000000000000000000B7
S113153000000000000000000000000000000000A7
S11315400000000000000000000000000000000097
S11315500000000000000000000000000000000087
S11315600000000000000000000000000000000077
S11315700000000000000000000000000000000067
S113158000000000FFFFFFFF00000000000000005B
S11315900000000000000000000000000000000047
S11315A00000000000000000000000000000000037
S11315B00000000000000000000000000000000027
S11315C00000000000000000000000000000000017
S1131AE0FFFFFFFFB5B6000000000000FFFFFFFF8F
S1131AF0FFFFFFFFFFFF000000000000FFFFFFFFEC
S1131B00FFFFFFFF00000000000000000000FFFFD7
S1131B10FFFF8C72000000000000FFFFFFFFFFFFCB
S1131B20FFFFFFFF000000000000FFFFFFFFFFFFBB
S1131B30FFFFFFFF000000000000000000000000A5
S1131B400000000000000000000000000000000091
S1131B500000000000000000000000000000000081
S1131B600000000000000000000000000000000071
S1131B700000000000000000000000000000000061
S1131B800000000000000000000000000000000051
S1131B900000000000000000000000000000FFFF43
S1131BA0FFFFFFFFB5B600000000FFFFFFFFF7BF18
S1131BB00000FFFFFFFF00000000FFFFFFFF000029
S1131BC00000FFFFFFFF000000000000FFFFFFFF19
S1131BD0FFFF8C7200000000FFFFFFFFFFFF00000B
S1131BE0FFFFFFFFFFFF0000FFFFFFFF00000000FB
S1131BF0FFFFFFFF000000000000000000000000E5
S1131C0000000000000000000000000000000000D0
S1131C1000000000000000000000000000000000C0
S1131C2000000000000000000000000000000000B0
S1131C3000000000000000000000000000000000A0
S1131C400000000000000000000000000000000090
S1131C50000000000000000000000000FFFFFFFF84
S1131C60FFFFFFFFB5B600000000FFFFFFFFE73CEA
S1131C700000FFFFFFFF00000000FFFFFFFF000068
S1131C800000FFFFFFFF00000000FFFFFFFFFFFF5A
S1131C90FFFF8C7200000000FFFFFFFF0000000048
S1131CA00000000000000000FFFFFFFF0000000034
S1131CB00000000000000000000000000000000020
S1131CC00000000000000000000000000000000010
S1131CD00000000000000000000000000000000000
S1131CE000000000000000000000000000000000F0
S1131CF000000000000000000000000000000000E0
S1131D0000000000000000000000000000000000CF
S1131D100000000000000000000000004229000054
S1131D20FFFFFFFFB5B6000000000000FFFFFFFF4C
S1131D30FFFFFFFFC63900000000FFFFFFFF0000A8
S1131D400000FFFFFFFF0000000039C70000FFFF95
S1131D50FFFF8C7200000000FFFFFFFFFFFFFFFF8B
S1131D60FFFFFFFF00000000FFFFFFFFFFFFFFFF7B
S1131D70FFFFFFFF00000000000000000000000063
S1131D80000000000000000000000000000000004F
S1131D90000000000000000000000000000000003F
S1131DA0000000000000000000000000000000002F
S1131DB0000000000000000000000000000000001F
S1131DC0000000000000000000000000000000000F
S1131DD000000000000000000000000000000000FF
S1131DE0FFFFFFFFB5B600000000FFFFFFFFFFFF8E
S1131DF00000FFFFFFFF00000000FFFFFFFF0000E7
S1131E000000FFFFFFFF0000000000000000FFFFD4
S1131E10FFFF8C7200000000FFFFFFFFFFFF0000C8
S1131E20FFFFFFFFFFFF0000FFFFFFFF00000000B8
S1131E30FFFFFFFF000000000000000000000000A2
S1131E40000000000000000000000000000000008E
S1131E50000000000000000000000000000000007E
S1131E60000000000000000000000000000000006E
S1131E70000000000000000000000000000000005E
S1131E80000000000000000000000000000000004E
S1131E90000000000000000000000000000000003E
S1131EA0FFFFFFFFB5B600000000FFFFFFFF0000CB
S1131EB00000FFFFFFFFFFFF0000FFFFFFFF000028
S1131EC00000FFFFFFFF0000000000000000FFFF14
S1131ED0FFFF8C7200000000FFFFFFFF0000000006
S1131EE00000FFFFFFFF0000FFFFFFFF00000000F6
S1131EF0FFFFFFFF000000000000000000000000E2
S1131F0000000000000000000000000000000000CD
S1131F1000000000000000000000000000000000BD
S1131F2000000000000000000000000000000000AD
S1131F30000000000000000000000000000000009D
S1131F40000000000000000000000000000000008D
S1131F50000000000000000000000000000000007D
S1131F60FFFFFFFFB5B600000000FFFFFFFFFFFF0C
S1131F700000FFFFFFFFFFFF0000FFFFFFFFFFFF69
S1131F80FFFFFFFFFFFF0000000000000000FFFF55
S1131F90FFFF8C72000000002965FFFFFFFF0000B7
S1131FA0FFFFFFFFCE590000FFFFFFFFFFFF000010
S1131FB0FFFFFFFF00000000000000000000000021
S1131FC0000000000000000000000000000000000D
S1131FD000000000000000000000000000000000FD
S1131FE000000000000000000000000000000000ED
S1131FF000000000000000000000000000000000DD
S113200000000000000000000000000000000000CC
S113201000000000000000000000000000000000BC
S1132020FFFFFFFFB5B6000000000000FFFFFFFF49
S1132030FFFFFFFFFFFF000000000000FFFFFFFFA6
S1132040FFFFFFFF00000000000000000000FFFF92
S1132050FFFF8C72000000000000FFFFFFFFFFFF86
S1132060FFFFFFFF000000000000FFFFFFFFFFFF76
S1132070FFFF00000000000000000000000000005E
S1132080000000000000000000000000000000004C
S1132090000000000000000000000000000000003C
S11320A0000000000000000000000000000000002C
S11320B0000000000000000000000000000000001C
S11326C00000FFFFFFFF2945000000000000FFFF9E
S11326D0FFFF0000000000000000000000000000F8
S11326E000000000000000000000000000000000E6
S11326F0000000000000000000000000FFFFFFFFDA
S113270000000000000000000000000000000000C5
S113271000000000000000000000000000000000B5
S11327200000000000000000000000000000FFFFA7
S1132730FFFFFFFF00000000000000000000000099
S11327400000FFFFFFFFFFFFFFFFFFFF000000008F
S11327500000000000000000000000000000000075
S11327600000000000000000000000000000000065
S11327700000000000000000000000000000000055
S11327800000FFFFFFFFFFFF00000000FFFFFFFF4F
S1132790FFFF000000000000000000000000000037
S11327A00000000000000000000000000000000025
S11327B00000000000000000000000000000000015
S11327C00000000000000000000000000000000005
S11327D000000000000000000000000000000000F5
S11327E0000000000000000000000000FFFFFFFFE9
S11327F0FFFFFFFF000000000000000000000000D9
S1132800FFFFFFFFFFFF0000FFFFFFFF00000000CE
S113281000000000000000000000000000000000B4
S113282000000000000000000000000000000000A4
S11328300000000000000000000000000000000094
S113284000000000FFFFFFFF00000000FFFFFFFF8C
S1132850634D00000841FFFFFFFFFFFFFFFF000083
S11328600000FFFFFFFF0000FFFFFFFF0000FFFF6E
S1132870FFFFFFFFFFFFFFFF00000000FFFFFFFF60
S1132880000000009492FFFFFFFFFFFFFFFF000026
S11328900000FFFFFFFF0000FFFFFFFFFFFF00003E
S11328A000000000000000000000FFFFFFFFFFFF2A
S11328B0FFFFFFFF00000000000000000000000018
S11328C0FFFFFFFF00000000FFFFFFFFFFFF00000E
S11328D000000000000000000000000000000000F4
S11328E000000000000000000000000000000000E4
S11328F000000000000000000000000000000000D4
S113290000000000FFFFFFFF00000000FFFFFFFFCB
S113291000000000FFFFFFFF00005ACBFFFFFFFF96
S11329200000FFFFFFFFFFFFFFFF00002145FFFF47
S1132930FFFF0000FFFFFFFF00000000FFFFFFFF9D
S113294000000000FFFFFFFF18E4FFFFFFFFFFFF91
S11329500000FFFFFFFFFFFFFFFFFFFFFFFF00007F
S1132960000000000000000000007BF00000FFFFFA
S1132970FFFFFFFF00000000000000000000000057
S1132980FFFFFFFF00000000FFFFFFFFFFFF00004D
S11329900000000000000000000000000000000033
S11329A00000000000000000000000000000000023
S11329B00000000000000000000000000000000013
S11329C000000000FFFFFFFFFFFFFFFFFFFFFFFF0F
S11329D00000FFFFFFFFFFFFFFFFFFFFFFFFFFFF01
S11329E00000FFFFFFFFFFFF000000000000FFFFEB
S11329F0FFFFFFFFFFFFFFFF00000000FFFFFFFFDF
S1132A000000FFFFFFFFFFFF00000000FFFFFFFFCC
S1132A100000FFFFFFFF9CD30000FFFFFFFF2145E5
S1132A200000000000000000000000000000FFFFA4
S1132A30FFFFFFFF00000000000000000000000096
S1132A40FFFFFFFF00000000FFFFFFFFFFFF00008C
S1132A500000000000000000000000000000000072
S1132A600000000000000000000000000000000062
S1132A700000000000000000000000000000000052
S1132A80000000000000FFFFFFFFFFFFFFFF00004A
S1132A900000FFFFFFFFFFFFFFFFFFFFFFFFFFFF40
S1132AA00000FFFFFFFFFFFF000000000000000028
S1132AB094B3FFFFFFFFFFFFCE590000FFFFFFFFAE
S1132AC00000FFFFFFFFFFFF00000000FFFFFFFF0C
S1132AD00000FFFFFFFF00000000FFFFFFFF214594
S1132AE00000000000000000000000000000FFFFE4
S1132AF0FFFFFFFF000000000000000000000000D6
S1132B00FFFFFFFF00000000FFFFFFFFAD760000A6
S1132B1000000000000000000000000000000000B1
S1132B2000000000000000000000000000000000A1
S1132B300000000000000000000000000000000091
S1132B40000000000000FFFFFFFFFFFFFFFF000089
S1132B5000000000FFFFFFFF0000528AFFFFFFFF9D
S1132B600000FFFFFFFFFFFF00000000FFFFFFFF6B
S1132B70FFFF0000FFFFFFFFFFDF0000FFFFFFFF7D
S1132B8000000000FFFFFFFF9492FFFFFFFFFFFF25
S1132B900000FFFFFFFF00000000FFFFFFFF2145D3
S1132BA00000000000000000000000000000FFFF23
S1132BB0FFFFFFFF00000000FFFFFFFFFFFF00001B
S1132BC0FFFFFFFFFFFFFFFFFFFFFFFF000000000D
S1132BD000000000000000000000000000000000F1
S1132BE000000000000000000000000000000000E1
S1132BF000000000000000000000000000000000D1
S1132C000000000000000000FFFFFFFFFFFF0000C6
S1132C10000000000000FFFFFFFFFFFFFFFF0000B8
S1132C200000FFFFFFFFFFFF000000000000FFFFA8
S1132C30FFFFFFFFFFFFFFFF00000000FFFFFFFF9C
S1132C40000000000000FFFFFFFFFFFFFFFF000088
S1132C500000FFFFFFFF00000000FFFFFFFF214512
S1132C600000000000000000000000000000FFFF62
S1132C70FFFFFFFF00000000FFFFFFFFFFFF00005A
S1132C800000FFFFFFFFFFFFFFFF00000000000048
S1132C900000000000000000000000000000000030
S1132CA00000000000000000000000000000000020
S1132CB00000000000000000000000000000000010
S1132CC00000000000000000000000000000000000
S1132EE00000000000000000FFFFFFFFFFFFFFFFE6
S1132EF0FFFFFFFFFFFFFFFFFFFFFFFFFFFFFFFFDE
S1132F00FFFFFFFFFFFFFFFFFFFFFFFFFFFFFFFFCD
S1132F10FFFFFFFFFFFFFFFFFFFFFFFFFFFFFFFFBD
S1132F20FFFFFFFFFFFFFFFFFFFFFFFFFFFFFFFFAD
S1133500FFFFFE17F800F800F800F800FB8CFFFF3F
S1133510FFFFFFFFFFFFFFFFFFFFFFFFFFFFFFFFB7
S1133520FFFFFFFFFFFFFFFFFFFFFFFFFFFFFFFFA7
S1133530FFFFFFFFFFFFFFFFFFFFFFFFFFFFFFFF97
S1133540FFFFFFFFFFFFFFFFFFFFFFFFFFFFFFFF87
S1133550FFFFFFFFFFFFFFFFFFFFFFFFFFFFFFFF77
S1133560FFFFFFFFFFFFFFFFFFFFFFFFFFFFFFFF67
S1133570FFFFFFFFFFFFFFFFFFFFFFFFFFFFFFFF57
S1133580FFFFFFFFFFFFFFFFFFFFFFFFFFFFFFFF47
S1133590FFFFFFFFFFFFFFFFFFFFFFFFFFFFFFFF37
S11335A0FFFFFFFFFFFFFFFFFFFFFFFFFFFFFFFF27
S11335B0FFFFFFFFFFFFFFFFFFFFFFFFF800F80023
S11335C0F800F800F800F800F800F800F800F80037
S11335D0F800F800FFFFFFFFFFFFFFFFFFFFFFFF03
S11335E0FFFFFFFFFFFFFFFFFFFFFFFFFFFFFFFFE7
S11335F0FFFFFFFFFFFFFFFFFFFFFFFFFFFFFFFFD7
S1133600FFFFFFFFFFFFFFFFFFFFFFFFFFFFFFFFC6
S1133610FFFFFFFFFFFFFFFFFFFFFFFFFFFFFFFFB6
S1133620FFFFFFFFFFFFFFFFFFFFFFFFFFFFFFFFA6
S1133630FFFFFFFFFFFFFFFFFFFFFFFFFFFFFFFF96
S1133640FFFFFFFFFFFFFFFFFFFFFFFFFFFFFFFF86
S1133650FFFFFFFFFFFFFFFFFFFFFFFFFFFFFFFF76
S1133660FFFFFFFFFFFFFFFFFFFFFFFFFFFFFFFF66
S1133670FFFFFFFFFFFFFFFFF800F800F800F8006E
S1133680F800F800F800F800F800F800F800F80076
S1133690F800F800F800F800FFFFFFFFFFFFFFFF4E
S11336A0FFFFFFFFFFFFFFFFFFFFFFFFFFFFFFFF26
S11336B0FFFFFFFFFFFFFFFFFFFFFFFFFFFFFFFF16
S11336C0FFFFFFFFFFFFFFFFFFFFFFFFFFFFFFFF06
S11336D0FFFFFFFFFFFFFFFFFFFFFFFFFFFFFFFFF6
S11336E0FFFFFFFFFFFFFFFFFFFFFFFFFFFFFFFFE6
S11336F0FFFFFFFFFFFFFFFFFFFFFFFFFFFFFFFFD6
S1133700FFFFFFFFFFFFFFFFFFFFFFFFFFFFFFFFC5
S1133710FFFFFFFFFFFFFFFFFFFFFFFFFFFFFFFFB5
S1133720FFFFFFFFFFFFFFFFFFFFFFFFFFFFFFFFA5
S1133730FFFFFFFFFCB2F800F800F800F800F80003
S1133740F800F800F800F800F800F800F800F800B5
S1133750F800F800F800F800F800F800FFFFFFFF99
S1133760FFFFFFFFFFFFFFFFFFFFFFFFFFFFFFFF65
S1133770FFFFFFFFFFFFFFFFFFFFFFFFFFFFFFFF55
S1133780FFFFFFFFFFFFFFFFFFFFFFFFFFFFFFFF45
S1133790FFFFFFFFFFFFFFFFFFFFFFFFFFFFFFFF35
S11337A0FFFFFFFFFFFFFFFFFFFFFFFFFFFFFFFF25
S11337B0FFFFFFFFFFFFFFFFFFFFFFFFFFFFFFFF15
S11337C0FFFFFFFFFFFFFFFFFFFFFFFFFFFFFFFF05
S11337D0FFFFFFFFFFFFFFFFFFFFFFFFFFFFFFFFF5
S11337E0FFFFFFFFFFFFFFFFFFFFFFFFFFFFFFFFE5
S11337F0FFFFF842F800F800F800F800F800F800BD
S1133800FCB3FFFFFFFFFFFFFFFFFFFFFFFFFEBA59
S1133810F800F800F800F800F800F800F800FFFFDE
S1133820FFFFFFFFFFFFFFFFFFFFFFFFFFFFFFFFA4
S1133830FFFFFFFFFFFFFFFFFFFFFFFFFFFFFFFF94
S1133840FFFFFFFFFFFFFFFFFFFFFFFFFFFFFFFF84
S1133850FFFFFFFFFFFFFFFFFFFFFFFFFFFFFFFF74
S1133860FFFFFFFFFFFFFFFFFFFFFFFFFFFFFFFF64
S1133870FFFFFFFFFFFFFFFFFFFFFFFFFFFFFFFF54
S1133880FFFFFFFFFFFFFFFFFFFFFFFFFFFFFFFF44
S1133890FFFFFFFFFFFFFFFFFFFFFFFFFFFFFFFF34
S11338A0FFFFFFFFFFFFFFFFFFFFFFFFFFFFFFFF24
S11338B0F800F800F800F800F800F800FFFFFFFF38
S11338C0FFFFFFFFFFFFFFFFFFFFFFFFFFFFFFFF04
S11338D0FFFFFFFFF800F800F800F800F800F80018
S11338E0FFFFFFFFFFFFFFFFFFFFFFFFFFFFFFFFE4
S11338F0FFFFFFFFFFFFFFFFFFFFFFFFFFFFFFFFD4
S1133900FFFFFFFFFFFFFFFFFFFFFFFFFFFFFFFFC3
S1133910FFFFFFFFFFFFFFFFFFFFFFFFFFFFFFFFB3
S1133920FFFFFFFFFFFFFFFFFFFFFFFFFFFFFFFFA3
S1133930FFFFFFFFFFFFFFFFFFFFFFFFFFFFFFFF93
S1133940FFFFFFFFFFFFFFFFFFFFFFFFFFFFFFFF83
S1133950FFFFFFFFFFFFFFFFFFFFFFFFFFFFFFFF73
S1133960FFFFFFFFFFFFFFFFFFFFFFFFFFFFFBAFB7
S1133970F800F800F800F800F946FFFFFFFFFFFF2A
S1133980FFFFFFFFFFFFFFFFFFFFFFFFFFFFFFFF43
S1133990FFFFFFFFFFFFFFFFF800F800F800F8004B
S11339A0F800FFFFFFFFFFFFFFFFFFFFFFFFFFFF29
S11339B0FFFFFFFFFFFFFFFFFFFFFFFFFFFFFFFF13
S11339C0FFFFFFFFFFFFFFFFFFFFFFFFFFFFFFFF03
S11339D0FFFFFFFFFFFFFFFFFFFFFFFFFFFFFFFFF3
S11339E0FFFFFFFFFFFFFFFFFFFFFFFFFFFFFFFFE3
S11339F0FFFFFFFFFFFFFFFFFFFFFFFFFFFFFFFFD3
S1133A00FFFFFFFFFFFFFFFFFFFFFFFFFFFFFFFFC2
S1133A10FFFFFFFFFFFFFFFFFFFFFFFFFFFFFFFFB2
S1133A20FFFFFFFFFFFFFFFFFFFFFFFFFFFFF800A8
S1133A30F800F800F800FDF9FFFFFFFFFFFFFFFFAC
S1133A40FFFFFFFFFFFFFFFFFFFFFFFFFFFFFFFF82
S1133A50FFFFFFFFFFFFFFFFFFFFF800F800F80084
S1133A60F800FCD1FFFFFFFFFFFFFFFFFFFFFFFF99
S1133A70FFFFFFFFFFFFFFFFFFFFFFFFFFFFFFFF52
S1133A80FFFFFFFFFFFFFFFFFFFFFFFFFFFFFFFF42
S1133A90FFFFFFFFFFFFFFFFFFFFFFFFFFFFFFFF32
S1133AA0FFFFFFFFFFFFFFFFFFFFFFFFFFFFFFFF22
S1133AB0FFFFFFFFFFFFFFFFFFFFFFFFFFFFFFFF12
S1133AC0FFFFFFFFFFFFFFFFFFFFFFFFFFFFFFFF02
S1133AD0FFFFFFFFFFFFFFFFFFFFFFFFFFFFFFFFF2
S1133AE0FFFFFFFFFFFFFFFFFFFFFFFFF800F800EE
S1133AF0F800F800F9C5FFFFFFFFFFFFFFFFFFFF1E
S1133B00FFFFFFFFFFFFFFFFFF9BFFFFFFFFFFFF25
S1133B10FFFFFFFFFFFFFFFFFFFFFFFFF800F800BD
S1133B20F8000000000000000000FFFFFFFFFFFF9F
S1133B30FFFFFFFFFFFFFFFFFFFFFFFFFFFFFFFF91
S1133B40FFFFFFFFFFFFFFFFFFFF0000000000007B
S1133B5018C3FFFFFFFFFFFFFFFFFFFFFFFFFFFF94
S1133B60FFFFFFFFFFFFFFFFFFFFFFFFFFFFFFFF61
S1133B70FFFFFFFFFFFFFFFFFFFFFFFFFFFFFFFF51
S1133B80FFFFFFFFFFFFFFFFFFFFFFFFFFFFFFFF41
S1133B90FFFFFFFFFFFFFFFFFFFFFFFFFFFFFFFF31
S1133BA0FFFFFFFFFFFFFFFFFFFFFFFFF800F8002D
S1133BB0F800F800FFFFFFFFFFFFFFFFFFFFFFFF1D
S1133BC0FFFFF800F800F800F800F800F9A8FFFF7C
S1133BD0FFFFFFFFFFFFFFFFFFFFFFFFFA08F800F3
S1133BE0F8000000000000000000FFFFFFFFFFFFDF
S1133BF0FFFFFFFFFFFFFFFFFFFFFFFFFFFFFFFFD1
S1133C00FFFFFFFFFFFFFFFFFFFF000000000000BA
S1133C1020E3FFFFFFFFFFFFFFFFFFFFFFFFFFFFAB
S1133C20FFFFFFFFFFFFFFFF0000000000008C10FC
S1133C30FFFFFFFFFFFFFFFFFFFFFFFFFFFFFFFF90
S1133C40FFFFFFFFFFFFFFFFFFFFFFFFFFFFFFFF80
S1133C50FFFFFFFFFFFFFFFFFFFFFFFFFFFFFFFF70
S1133C60FFFFFFFFFFFFFFFFFFFFF800F800F80072
S1133C70F800FFFFFFFFFFFFFFFFFFFFFFFFFFDE77
S1133C80F800F800F800F800F800F800F800FFFF6A
S1133C90FFFFFFFFFFFFFFFFFFFFFFFFFFFFF80036
S1133CA0F8000000000000000000FFFFFFFFFFFF1E
S1133CB0FFFFFFFFFFFFFFFFFFFFFFFFFFFFFFFF10
S1133CC0FFFFFFFFFFFFFFFFFFFF000000000000FA
S1133CD018C3FFFFFFFFFFFFFFFFFFFFFFFFFFFF13
S1133CE0FFFFFFFFFFFFFFFF000000000000841044
S1133CF0FFFFFFFFFFFFFFFFFFFFFFFFFFFFFFFFD0
S1133D00FFFFFFFFFFFFFFFFFFFFFFFFFFFFFFFFBF
S1133D10FFFFFFFFFFFFFFFFFFFFFFFFFFFFFFFFAF
S1133D20FFFFFFFFFFFFFFFFFFFFF800F800F800B1
S1133D30F800FFFFFFFFFFFFFFFFFFFFFFFFF8009B
S1133D40F800F800F800F800F800F800F800F800AF
S1133D50FFFFFFFFFFFFFFFFFFFFFFFFFFFFFACBA8
S1133D60F8000000000000000000FFFFFFFFFFFF5D
S1133D70FFFFFFFFFFFFFFFFFFFFFFFFFFFFFFFF4F
S1133D80FFFFFFFFFFFFFFFFFFFF00000000000039
S1133D9018C3FFFFFFFFFFFFFFFFFFFFFFFFFFFF52
S1133DA0FFFFFFFFFFFFFFFF00000000000083F0A4
S1133DB0FFFFFFFFFFFFFFFFFFFFFFFFFFFFFFFF0F
S1133DC0FFFFFFFFFFFFFFFFFFFFFFFFFFFFFFFFFF
S1133DD0FFFFFFFFFFFFFFFFFFFFFFFFFFFFFFFFEF
S1133DE0FFFFFFFFFFFFFFFFFFFFF800F800F800F1
S1133DF0FC91FFFFFFFFFFFFFFFFFFFFFFFFF80046
S1133E00F800F800F800F800F800FA28FFFFFFFFB8
S1133E10FFFFFFFFFFFFFFFFFFFFFFFFFFFFFFFFAE
S1133E20F8000000000000000000FFFFFFFFFFFF9C
S1133E30FFFFFFFF5A8A000000000000000000009E
S1133E40E6FBFFFFFFFFFFFFFFFF00000000000095
S1133E5018C3FFFFFFFFFFFFFFFF316531653165C9
S1133E602945FFFF2945210400000000000000004F
S1133E70316531653145FFFFFFFFFFFFFFFFCE597D
S1133E80000000000000000000005A8AFFFFFFFF4E
S1133E90FFFFFFFFFFFF3165316531459CB3FFFF35
S1133EA0FFFF5ACB1882FFFFFC50F800F800F8001F
S1133EB0FFFFFFFFFFFFFFFFFFFFFFFFFFFFF80014
S1133EC0F800F820FFDFFFFFFFFFFFFFFFFFFFFF0A
S1133ED0FFFFFFFFFFFFFFFFFFFFFFFFFFFFFFFFEE
S1133EE0F8000000000000000000FFFFFFFFFFFFDC
S1133EF0B596000000000000000000000000000073
S1133F0000000000FFFFFFFFFFFF000000000000B3
S1133F1018C3FFFFFFFFFFFF0000000000000000C8
S1133F20FFFFFFFF00000000000000000000000091
S1133F30000000000000FFFFFFFFFFFF0000000083
S1133F400000000000000000000000000000D69AFD
S1133F50FFFFFFFFFFFF000000000000526918C3CD
S1133F60000000000000FFFFF800F800F800F8006F
S1133F70FFFFFFFFFFFFFFFFFFFFFFFFFFFFFFFF4D
S1133F80FFFFFFFFFFFFFFFFFFFFFFFFFFFFFFFF3D
S1133F90FFFFFFFFFFFFFFFFFFFFFFFFFC71F800C4
S1133FA0F8000000000000000000FFFFFFFFEF7DAD
S1133FB00000000000000000FFFFFFFF0000000001
S1133FC000000000BDD7FFFFFFFF0000000000005D
S1133FD018C3FFFFFFFF0000000000000000EF5DBA
S1133FE0FFFFFFFF000000000000000000000000D1
S1133FF0000000000000FFFFFFFF000000000000C1
S1134000000000002945000000000000000000003E
S1134010FFFFFFFFFFFF00000000000000000000A2
S1134020000000000000FFFFF800F800F800F800AE
S1134030FFFFFFFFFFFFFFFFFFFFFFFFFFFFFFFF8C
S1134040FFFFFFFFFFFFFFFFFFFFFFFFFFFFFFFF7C
S1134050FFFFFFFFFF9DF800F800F800F800F800EC
S1134060F8000000000000000000FFFFFFFF000058
S1134070000000000000FFFFFFFFFFFFFFFF000044
S1134080000000000000FFFFFFFF00000000000030
S113409018C3FFFF00000000000000006B4DFFFF8D
S11340A0FFFFFFFFFFFFFFFF000000000000841080
S11340B0FFFFFFFFFFFFFFFFFFFF00000000000006
S11340C00000FFFFFFFFFFFFFFFF000000000000F4
S11340D00000FFFFFFFF00000000000000000000E0
S11340E0000000000000FFFFF800F800F800F800EE
S11340F0FFFFFFFFFFFFFFFFFFFFFFFFFFFFFFFFCC
S1134100FFFFFFFFFFFFFFFFFFFFFFFFFFFFF800C1
S1134110F800F800F800F800F800F800F800F800DB
S1134120F8000000000000000000FFFFFFFF000097
S113413000000000F79EFFFFFFFFFFFFFFFF20C30B
S1134140000000000000FFFFFFFF0000000000006F
S113415020C3736D0000000000000000FFFFFFFF9C
S1134160FFFFFFFFFFFFFFFF0000000000008410BF
S1134170FFFFFFFFFFFFFFFF000000000000000043
S1134180FFFFFFFFFFFFFFFFFFFF00000000000035
S11341900000FFFFFFFF0000000000004A69FFFF6E
S11341A0FFFFFFFFFFFFFFFFF800F800F800F80033
S11341B0FFFFFFFFFFFFFFFFFFFFFFFFFFFFFFFF0B
S11341C0FFFFFFFFFFFFF9A6F800F800F800F80072
S11341D0F800F800F800F800F800F800F863FFFFB2
S11341E0F8000000000000000000FFFFF77D000061
S11341F000000000000000000000000000000000BB
S1134200000000000000FFFFFFFF000000000000AE
S113421000000000000000000000FFFFFFFFFFFFA0
S1134220FFFFFFFFFFFFFFFF0000000000008410FE
S1134230FFFFFFFFFFFFFFFF000000000000000082
S1134240FFFFFFFFFFFFFFFFFFFF00000000000074
S11342500000FFFFFFFF0000000000004A49FFFFCD
S1134260FFFFFFFFFFFFFFFFFE9AF800F800F800D2
S1134270FFFFFFFFFFFFFFFFFFFFFFFFFFFFFFFF4A
S1134280F800F800F800F800F800F800F800F8006A
S1134290F800F800F800F800F800F8C2FFFFFFFF8C
S11342A0F8000000000000000000FFFFD67A0000C4
S11342B000000000000000000000000000000000FA
S11342C0000000000000FFFFFFFF000000000000EE
S11342D0000000000000000000000000FFFFFFFFDE
S11342E0FFFFFFFFFFFFFFFF00000000000084103E
S11342F0FFFFFFFFFFFFFFFF0000000000000000C2
S1134300FFFFFFFFFFFFFFFFFFFF000000000000B3
S11343100000FFFFFFFF0000000000004A49FFFF0C
S1134320FFFFFFFFFFFFFFFFFFFFF800F800F800AB
S1134330F9E7FFFFFFFFFFFFFFFFFFFFFFFFFFFFA7
S1134340FEDAF800F800F800F800F800F800F800C9
S1134350F800F800F800F800FD14FFFFFFFFFFFF6E
S1134360F8000000000000000000FFFFFFFF000055
S113437000000000B596FFFFFFFFFFFFFFFFFFFFF8
S1134380FFFFFFFFFFFFFFFFFFFF00000000000033
S11343900000FFFF0000000000000000EF5DFFFFD1
S11343A0FFFFFFFFFFFFFFFF0000000000007BEFA7
S11343B0FFFFFFFFFFFFFFFF000000000000000001
S11343C0FFFFFFFFFFFFFFFFFFFF000000000000F3
S11343D00000FFFFFFFF0000000000004A49FFFF4C
S11343E0FFFFFFFFFFFFFFFFFFFFF800F800F800EB
S11343F0F800FFFFFFFFFFFFFFFFFFFFFFFFFFFFCF
S1134400FFFFF8E4F800F800F800F800F800F800FE
S1134410F800F800F800FFFFFFFFFFFFFFFFF800C0
S1134420F8000000000000000000FFFFFFFF000094
S1134430000000000000FFFFFFFFFFFFFFFFFFFF82
S1134440FFFFFFFF6B0CFFFFFFFF000000000000F9
S113445018C3FFFFFFFF0000000000000000FFFF83
S1134460FFFFFFFFFFFFFFFF0000000000005AAA4C
S1134470FFFFFFFFFFFFFFFFAD550000000000003E
S113448083CFFFFFFFFFFFFFFFFF000000000000DE
S11344900000FFFFFFFF0000000000004A49FFFF8B
S11344A0FFFFFFFFFFFFFFFFFFFFF8C4F800F80066
S11344B0F800FD96FFFFFFFFFFFFFFFFFFFFFFFF79
S11344C0FFFFFFFFFFFFF800F800F800F800F80016
S11344D0F923FFFFFFFFFFFFFFFFFFFFFFFFF800D0
S11344E0F8000000000000000000FFFFFFFF2104AF
S11344F0000000000000000083EFFFFFFFFFFFDF6C
S1134500316500000000FFFFFFFF00000000000015
S113451018C3FFFFFFFF18A2000000000000000006
S1134520FFFFFFFFFFFFFFFF00000000000000008F
S1134530F79EFFFF736DFFFFFFFF00000000000008
S113454000009CB3FFFFFFFF00000000000000001C
S1134550A4F3FFFFFFFF0000000000004A49FFFF33
S1134560FFFFFFFFFFFFFFFFFFFFFFFFF800F80063
S1134570F800F800FFFFFFFFFFFFFFFFFFFFFFFF53
S1134580FFFFFFFFFFFFFFFFFFFFFFFFFFFFFFFF37
S1134590FFFFFFFFFFFFFFFFFFFFFFFFF800F80033
S11345A0F8000000000000000000FFFFFFFFFFFF15
S11345B000000000000000000000000000000000F7
S11345C0000000000000FFFFFFFF000000000000EB
S11345D018C3FFFFFFFFFFFF000000000000000002
S11345E0C618FFFFFFFFFFFF0000000000000000EF
S11345F0000000000000FFFFFFFFFFFF00000000BD
S113460000000000000000000000000000000000A6
S1134610FFFFFFFFFFFF0000000000004A49FFFF0B
S1134620FFFFFFFFFFFFFFFFFFFFFFFFF882F80020
S1134630F800F800F800FFFFFFFFFFFFFFFFFFFF98
S1134640FFFFFFFFFFFFFFFFFFFFFFFFFFFFFFFF76
S1134650FFFFFFFFFFFFFFFFFFFFFA89F800F800ED
S1134660F8000000000000000000FFFFFFFFFFFF54
S1134670FFFFAD5500000000000000000000000036
S1134680000000005249FFFFFFFF0000000000008F
S113469018C3FFFFFFFFFFFFFFFF00000000000043
S11346A00000FFFFFFFFFFFFFFFF0000000000000E
S11346B0000000000000FFFFFFFFFFFFFFFF0000FE
S11346C00000000000000000000000006B0CFFFF71
S11346D0FFFFFFFFFFFF0000000000004208FFFF94
S11346E0FFFFFFFFFFFFFFFFFFFFFFFFFFFFF800DC
S11346F0F800F800F800F800FFFFFFFFFFFFFFFFDE
S1134700FFFFFFFFFFFFFFFFFFFFFFFFFFFFFFFFB5
S1134710FFFFFFFFFFFFFFFFFBCEF800F800F800EC
S1134720F800FFFFFFFFFFFFFFFFFFFFFFFFFFFF9B
S1134730FFFFFFFFFFFFFFFFFFFFFFFFFFFFFFFF85
S1134740FFFFFFFFFFFFFFFFFFFFFFFFFFFFFFFF75
S1134750FFFFFFFFFFFFFFFFFFFFFFFFFFFFFFFF65
S1134760FFFFFFFFFFFFFFFFFFFFFFFFFFFFFFFF55
S1134770FFFFFFFFFFFFFFFFFFFFFFFFFFFFFFFF45
S1134780FFFFFFFFF77EFFFFFFFFFFFFFFFFFFFFBE
S1134790FFFFFFFFFFFFFFFFFFFFFFFFFFFFFFFF25
S11347A0FFFFFFFFFFFFFFFFFFFFFFFFFFFFFFFF15
S11347B0F800F800F800F800F800FFFFFFFFFFFF23
S11347C0FFFFFFFFFFFFFFFFFFFFFFFFFFFFFFFFF5
S11347D0FFFFFFFFFFFFF800F800F800F800F80003
S11347E0FB0CFFFFFFFFFFFFFFFFFFFFFFFFFFFFCC
S11347F0FFFFFFFFFFFFFFFFFFFFFFFFFFFFFFFFC5
S1134800FFFFFFFFFFFFFFFFFFFFFFFFFFFFFFFFB4
S1134810FFFFFFFFFFFFFFFFFFFFFFFFFFFFFFFFA4
S1134820FFFFFFFFFFFFFFFFFFFFFFFFFFFFFFFF94
S1134830FFFFFFFFFFFFFFFFFFFFFFFFFFFFFFFF84
S1134840FFFFFFFFFFFFFFFFFFFFFFFFFFFFFFFF74
S1134850FFFFFFFFFFFFFFFFFFFFFFFFFFFFFFFF64
S1134860FFFFFFFFFFFFFFFFFFFFFFFFFFFFFFFF54
S1134870FEBAF800F800F800F800F800F8E4FFFFCA
S1134880FFFFFFFFFFFFFFFFFFFFFFFFFFFFFFFF34
S1134890FFFFFD94F800F800F800F800F800F86154
S11348A0FFFFFFFFFFFFFFFFFFFFFFFFFFFFFFFF14
S11348B0FFFFFFFFFFFFFFFFFFFFFFFFFFFFFFFF04
S11348C0FFFFFFFFFFFFFFFFFFFFFFFFFFFFFFFFF4
S11348D0FFFFFFFFFFFFFFFFFFFFFFFFFFFFFFFFE4
S11348E0FFFFFFFFFFFFFFFFFFFFFFFFFFFFFFFFD4
S11348F0FFFFFFFFFFFFFFFFFFFFFFFFFFFFFFFFC4
S1134900FFFFFFFFFFFFFFFFFFFFFFFFFFFFFFFFB3
S1134910FFFFFFFFFFFFFFFFFFFFFFFFFFFFFFFFA3
S1134920FFFFFFFFFFFFFFFFFFFFFFFFFFFFFFFF93
S1134930FFFFFF9EF800F800F800F800F800F80008
S1134940F800FB2CFF7EFFFFFFFFFFFFFD13F800C5
S1134950F800F800F800F800F800F800F9C6FFFFC6
S1134960FFFFFFFFFFFFFFFFFFFFFFFFFFFFFFFF53
S1134970FFFFFFFFFFFFFFFFFFFFFFFFFFFFFFFF43
S1134980FFFFFFFFFFFFFFFFFFFFFFFFFFFFFFFF33
S1134990FFFFFFFFFFFFFFFFFFFFFFFFFFFFFFFF23
S11349A0FFFFFFFFFFFFFFFFFFFFFFFFFFFFFFFF13
S11349B0FFFFFFFFFFFFFFFFFFFFFFFFFFFFFFFF03
S11349C0FFFFFFFFFFFFFFFFFFFFFFFFFFFFFFFFF3
S11349D0FFFFFFFFFFFFFFFFFFFFFFFFFFFFFFFFE3
S11349E0FFFFFFFFFFFFFFFFFFFFFFFFFFFFFFFFD3
S11349F0FFFFFFFFFFFFF800F800F800F800F800E1
S1134A00F800F800F800F800F800F800F800F800E2
S1134A10F800F800F800F800F800FF5BFFFFFFFF64
S1134A20FFFFFFFFFFFFFFFFFFFFFFFFFFFFFFFF92
S1134A30FFFFFFFFFFFFFFFFFFFFFFFFFFFFFFFF82
S1134A40FFFFFFFFFFFFFFFFFFFFFFFFFFFFFFFF72
S1134A50FFFFFFFFFFFFFFFFFFFFFFFFFFFFFFFF62
S1134A60FFFFFFFFFFFFFFFFFFFFFFFFFFFFFFFF52
S1134A70FFFFFFFFFFFFFFFFFFFFFFFFFFFFFFFF42
S1134A80FFFFFFFFFFFFFFFFFFFFFFFFFFFFFFFF32
S1134A90FFFFFFFFFFFFFFFFFFFFFFFFFFFFFFFF22
S1134AA0FFFFFFFFFFFFFFFFFFFFFFFFFFFFFFFF12
S1134AB0FFFFFFFFFFFFFFFFFE78F800F800F8009C
S1134AC0F800F800F800F800F800F800F800F80022
S1134AD0F800F800F800F966FFFFFFFFFFFFFFFF93
S1134AE0FFFFFFFFFFFFFFFFFFFFFFFFFFFFFFFFD2
S1134AF0FFFFFFFFFFFFFFFFFFFFFFFFFFFFFFFFC2
S1134B00FFFFFFFFFFFFFFFFFFFFFFFFFFFFFFFFB1
S1134B10FFFFFFFFFFFFFFFFFFFFFFFFFFFFFFFFA1
S1134B20FFFFFFFFFFFFFFFFFFFFFFFFFFFFFFFF91
S1134B30FFFFFFFFFFFFFFFFFFFFFFFFFFFFFFFF81
S1134B40FFFFFFFFFFFFFFFFFFFFFFFFFFFFFFFF71
S1134B50FFFFFFFFFFFFFFFFFFFFFFFFFFFFFFFF61
S1134B60FFFFFFFFFFFFFFFFFFFFFFFFFFFFFFFF51
S1134B70FFFFFFFFFFFFFFFFFFFFFFFFFFFFF80047
S1134B80F800F800F800F800F800F800F800F80061
S1134B90F800FE79FFFFFFFFFFFFFFFFFFFFFFFFAE
S1134BA0FFFFFFFFFFFFFFFFFFFFFFFFFFFFFFFF11
S1134BB0FFFFFFFFFFFFFFFFFFFFFFFFFFFFFFFF01
S1134BC0FFFFFFFFFFFFFFFFFFFFFFFFFFFFFFFFF1
S1134BD0FFFFFFFFFFFFFFFFFFFFFFFFFFFFFFFFE1
S11352E0FFFFFFFFFFFFFFFF11241FBECFEFD8E03A
S11352F0DEBFCDBF11E0A0E0B1E0E0E3FBE602C019
S113530005900D92A230B107D9F721E0A2E0B1E0F7
S113531001C01D92A731B207E1F70E9404340C9436
S113532096350C940000882314F42B9A01C02B9812
S11353302D9A2D9886FF02C02B9A01C02B982D9A86
S11353402D9885FF02C02B9A01C02B982D9A2D9879
S113535084FF02C02B9A01C02B982D9A2D9883FFAD
S113536002C02B9A01C02B982D9A2D9882FF02C05F
S11353702B9A01C02B982D9A2D9881FF02C02B9A4D
S113538001C02B982D9A2D9880FF02C02B9A01C042
S11353902B982D9A2D9808950F931F93CF932898A7
S11353A082E20E94932980E00E94932980E00E9477
S11353B093298AE00E94932908E011E0CFE3F801E1
S11353C08081FC2FF81B8F2F0E94932980E00E947C
S11353D0932980E00E94932980E00E94932980E031
S11353E00E94932980E00E94932980E00E949329DF
S11353F08FE99FE00197F1F700C0000082E20E946C
S1135400932980E00E949329F8018081FC2FF81BE6
S11354108F2F0E9493298AE00E9493298FE30E9490
S113542093298FEF0E9493298FEF0E9493298FEF86
S11354300E9493298FEF0E9493298FEF0E94932952
S11354408FEF0E9493298FE99FE00197F1F700C045
S1135450000085B185B982E20E9493298EE00E9402
S1135460932980E00E94932988E10E9493290FE008
S113547011E0F8018081FC2FF81B8F2F0E949329E3
S113548080E00E94932980E00E94932980E00E949A
S1135490932980E00E94932980E00E94932980E070
S11354A00E9493298FE99FE00197F1F700C0000063
S11354B082E20E9493298EE00E949329F801808160
S11354C0FC2FF81B8F2F0E94932988E10E949329B7
S11354D08FE30E9493298FEF0E9493298FEF0E94FC
S11354E093298FEF0E9493298FEF0E9493298FEFC6
S11354F00E9493298FEF0E9493298FE99FE00197DF
S1135500F1F700C00000289882E20E9493298CE100
S11355100E94932980E00E94932986E20E949329A5
S113552003E111E0F8018081FC2FF81B8F2F0E940A
S1135530932980E00E94932980E00E94932980E0CF
S11355400E94932980E00E94932980E00E9493297D
S113555080E00E9493298FE99FE00197F1F700C052
S1135560000082E20E9493298CE10E949329F801B1
S11355708081FC2FF81B8F2F0E94932986E20E94C2
S113558093298FE30E9493298FEF0E9493298FEF31
S11355900E9493298FEF0E9493298FEF0E949329F1
S11355A08FEF0E9493298FEF0E9493298FE99FE048
S11355B00197F1F700C00000289882E20E94932925
S11355C08AE20E94932980E00E94932984E30E9446
S11355D093290AE011E0F8018081FC2FF81B8F2F3A
S11355E00E94932980E00E94932980E00E949329DD
S11355F080E00E94932980E00E94932980E00E9429
S1135600932980E00E9493298FE99FE00197F1F7A5
S113561000C0000082E20E9493298AE20E9493293A
S1135620F8018081FC2FF81B8F2F0E94932984E3BB
S11356300E9493298FE30E9493298FEF0E9493295C
S11356408FEF0E9493298FEF0E9493298FEF0E947E
S113565093298FEF0E9493298FEF0E9493298FE95A
S11356609FE00197F1F700C00000289882E20E94B1
S1135670932988E30E94932980E00E94932982E47D
S11356800E94932901E111E0F8018081FC2FF81BAD
S11356908F2F0E94932980E00E94932980E00E942A
S11356A0932980E00E94932980E00E94932980E05E
S11356B00E94932980E00E9493298FE99FE001973B
S11356C0F1F700C0000082E20E94932988E30E945F
S11356D09329F8018081FC2FF81B8F2F0E949329B6
S11356E082E40E9493298FE30E9493298FEF0E9402
S11356F093298FEF0E9493298FEF0E9493298FEFB4
S11357000E9493298FEF0E9493298FEF0E9493297F
S11357108FE99FE00197F1F700C00000289882E22A
S11357200E94932986E40E94932980E00E94932991
S113573080E50E94932906E011E0F8018081FC2FA6
S1135740F81B8F2F0E94932980E00E94932980E008
S11357500E94932980E00E94932980E00E9493296B
S113576080E00E94932980E00E9493298FE99FE0C2
S11357700197F1F700C0000082E20E94932986E4B9
S11357800E949329F8018081FC2FF81B8F2F0E941F
S1135790932980E50E9493298FE30E9493298FEF38
S11357A00E9493298FEF0E9493298FEF0E949329DF
S11357B08FEF0E9493298FEF0E9493298FEF0E940D
S11357C093298FE99FE00197F1F700C00000289822
S11357D082E20E94932984E50E94932980E00E943A
S11357E093298EE50E94932905E111E0F801808157
S11357F0FC2FF81B8F2F0E94932980E00E9493298D
S113580080E00E94932980E00E94932980E00E9416
S1135810932980E00E94932980E00E9493298FE9D4
S11358209FE00197F1F700C0000082E20E949329F3
S113583084E50E949329F8018081C81B8C2F0E9463
S113584093298EE50E9493298FE30E9493298FEF79
S11358500E9493298FEF0E9493298FEF0E9493292E
S11358608FEF0E9493298FEF0E9493298FEF0E945C
S113587093298FE99FE00197F1F700C00000CF91D1
S11358801F910F910895289882E20E94932980E045
S11358900E94932980E00E9493298FE50E94932916
S11358A08FE30E9493298FEF0E9493298FEF0E9428
S11358B093298FEF0E9493298FEF0E9493298FEFF2
S11358C00E9493298FEF0E9493290895289885E2D6
S11358D00E94932980E00E94932980E00E949329EA
S11358E08FE50E9493298FE30E9493298FE99FE01B
S11358F00197F1F700C0000008950F931F93CF9311
S1135900DF93289AC8EEDEE208EE12E5FE018491E8
S11359100E9493292196C017D107C1F7DF91CF9137
S11359201F910F9108950F931F93CF93DF93289A9C
S1135930C8E6D0E008EE1EE2FE0184910E9493299D
S11359402196C017D107C1F7DF91CF911F910F9115
S11359500895EAE7F0E087E08083808180688083AF
S113596081E480937C000895ECE7F0E09081907FDF
S113597090839081892B8083EAE7F0E080818064C2
S11359808083808184FFFDCFEAE7F0E0808180613D
S1135990808380917800909179000895429A419A89
S11359A08FEC97E00197F1F700C0000041988FEC6D
S11359B097E00197F1F700C000004298419A8FECFC
S11359C097E00197F1F700C0000041988FEC97E051
S11359D00197F1F700C0000080E00E94B42C813CE4
S11359E0910598F0805C91098E3091054CF06DE042
S11359F070E00E946E35709309016093080109C03C
S1135A00109209011092080104C010920901109229
S1135A100801419A8FEC97E00197F1F700C000006C
S1135A2041988FEC97E00197F1F700C0000080E007
S1135A300E94B42C813C910598F0805C91098E30D1
S1135A4091054CF06DE070E00E946E35709310018A
S1135A5060930F0109C01092100110920F0104C04D
S1135A601092100110920F01419A8FEC97E0019768
S1135A70F1F700C0000041988FEC97E00197F1F72F
S1135A8000C0000080E00E94B42C813C910598F095
S1135A90805C91098E3091054CF06DE070E00E94BD
S1135AA06E35709314016093130109C010921401B0
S1135AB01092130104C01092140110921301419A20
S1135AC08FEC97E00197F1F700C0000041988FEC4C
S1135AD097E00197F1F700C0000080E00E94B42C29
S1135AE0813C910598F0805C91098E3091054CF0D1
S1135AF06DE070E00E946E3570930B0160930A01B3
S1135B0009C010920B0110920A0104C010920B01FB
S1135B1010920A01419A8FEC97E00197F1F700C0C7
S1135B20000041988FEC97E00197F1F700C0000066
S1135B3080E00E94B42C813C910598F0805C91092E
S1135B408E3091054CF06DE070E00E946E357093DC
S1135B5012016093110109C01092120110921101F7
S1135B6004C01092120110921101419A8FEC97E037
S1135B700197F1F700C0000041988FEC97E001977E
S1135B80F1F700C0000080E00E94B42C813C910534
S1135B9098F0805C91098E3091054CF06DE070E0D6
S1135BA00E946E35709307016093060109C010923C
S1135BB007011092060104C0109207011092060119
S1135BC0419A8FEC97E00197F1F700C000004198EB
S1135BD08FEC97E00197F1F700C0000080E00E948D
S1135BE0B42C813C910598F0805C91098E3091052C
S1135BF04CF06DE070E00E946E3570931601609376
S1135C00150109C0109216011092150104C01092DA
S1135C10160110921501419A8FEC97E00197F1F764
S1135C2000C0000008950F931F93CF93DF93082FB4
S1135C30162FD42F40340CF0DFE3289882E20E9420
S1135C409329802F0E94932980E00E949329812F19
S1135C500E949329CFE3CD1B8C2F0E94932980E0CF
S1135C600E94932980E00E94932980E00E94932956
S1135C7080E00E94932980E00E94932980E00E94A2
S1135C8093298FE99FE00197F1F700C00000D43217
S1135C9044F582E20E949329802F0E9493298C2F3D
S1135CA00E949329812F0E9493298FE30E949329B4
S1135CB080E00E9493298FEF0E94932980E00E9444
S1135CC0932980E00E9493298FEF0E94932980E01A
S1135CD00E9493298FE99FE00197F1F700C000002B
S1135CE077C082E20E949329802F0E9493298CE13D
S1135CF00E949329812F0E9493298FE30E94932964
S1135D0080E00E9493298FEF0E94932980E00E94F3
S1135D10932980E00E9493298FEF0E94932980E0C9
S1135D200E9493298FE99FE00197F1F700C00000DA
S1135D3082E20E949329802F0E9493298C2F0E9433
S1135D409329812F0E9493298DE10E9493298FEF3B
S1135D500E9493298FEF0E94932980E00E94932947
S1135D608FEF0E9493298FEF0E94932980E00E9475
S1135D7093298FE99FE00197F1F700C00000D73322
S1135D803CF182E20E949329802F0E9493298C2F58
S1135D900E949329812F0E9493298AE00E949329CB
S1135DA08FEF0E94932980E00E94932980E00E9453
S1135DB093298FEF0E94932980E00E94932980E029
S1135DC00E9493298FE99FE00197F1F700C000003A
S1135DD0DF91CF911F910F910895409108016AE0DE
S1135DE080E00E94132E40910F0168E18EE00E9432
S1135DF0132E4091130166E28CE10E94132E409110
S1135E000A0164E38AE20E94132E4091110162E4C4
S1135E1088E30E94132E4091060160E586E40E9407
S1135E20132E409115016EE584E50E94132E08950A
S1135E300F931F93CF93289882E20E94932983E0C3
S1135E400E94932980E00E94932987E00E9493296D
S1135E5008E011E0CFE3F8018081FC2FF81B8F2FBD
S1135E600E94932980E00E94932980E00E94932954
S1135E7080E00E94932980E00E94932980E00E94A0
S1135E80932980E00E9493298FE99FE00197F1F71D
S1135E9000C0000082E20E94932983E00E949329BB
S1135EA0F8018081FC2FF81B8F2F0E94932987E033
S1135EB00E9493298FE30E94932980E00E949329F2
S1135EC080E00E9493298FEF0E94932980E00E9432
S1135ED0932980E00E9493298FEF0E9493298FE9F0
S1135EE09FE00197F1F700C00000289882E20E9429
S1135EF0932981E10E94932980E00E94932985E1FE
S1135F000E9493290FE011E0F8018081FC2FF81B17
S1135F108F2F0E94932980E00E94932980E00E94A1
S1135F20932980E00E94932980E00E94932980E0D5
S1135F300E94932980E00E9493298FE99FE00197B2
S1135F40F1F700C0000082E20E94932981E10E94DF
S1135F509329F8018081FC2FF81B8F2F0E9493292D
S1135F6085E10E9493298FE30E94932980E00E9497
S1135F70932980E00E9493298FEF0E94932980E067
S1135F800E94932980E00E9493298FEF0E94932915
S1135F908FE99FE00197F1F700C00000289882E2A2
S1135FA00E9493298FE10E94932980E00E94932903
S1135FB083E20E94932903E111E0F8018081FC2F20
S1135FC0F81B8F2F0E94932980E00E94932980E080
S1135FD00E94932980E00E94932980E00E949329E3
S1135FE080E00E94932980E00E9493298FE99FE03A
S1135FF00197F1F700C0000082E20E9493298FE12B
S11360000E949329F8018081FC2FF81B8F2F0E9496
S1136010932983E20E9493298FE30E94932980E0CD
S11360200E94932980E00E9493298FEF0E94932974
S113603080E00E94932980E00E9493298FEF0E94C0
S113604093298FE99FE00197F1F700C00000289899
S113605082E20E9493298DE20E94932980E00E94AB
S1136060932981E30E9493290AE011E0F8018081D9
S1136070FC2FF81B8F2F0E94932980E00E94932904
S113608080E00E94932980E00E94932980E00E948E
S1136090932980E00E94932980E00E9493298FE94C
S11360A09FE00197F1F700C0000082E20E9493296B
S11360B08DE20E949329F8018081FC2FF81B8F2F19
S11360C00E94932981E30E9493298FE30E949329DC
S11360D080E00E94932980E00E9493298FEF0E9420
S11360E0932980E00E94932980E00E9493298FEFF6
S11360F00E9493298FE99FE00197F1F700C0000007
S1136100289882E20E9493298BE30E94932980E0DD
S11361100E9493298FE30E94932901E111E0F80181
S11361208081FC2FF81B8F2F0E94932980E00E940E
S1136130932980E00E94932980E00E94932980E0C3
S11361400E94932980E00E94932980E00E94932971
S11361508FE99FE00197F1F700C0000082E20E94FE
S113616093298BE30E949329F8018081FC2FF81B6B
S11361708F2F0E9493298FE30E9493298FE30E941B
S1136180932980E00E94932980E00E9493298FEF55
S11361900E94932980E00E94932980E00E94932921
S11361A08FEF0E9493298FE99FE00197F1F700C0D8
S11361B00000289882E20E94932989E40E9493298E
S11361C080E00E9493298DE40E94932906E011E067
S11361D0F8018081FC2FF81B8F2F0E94932980E007
S11361E00E94932980E00E94932980E00E949329D1
S11361F080E00E94932980E00E94932980E00E941D
S113620093298FE99FE00197F1F700C0000082E233
S11362100E94932989E40E949329F8018081FC2F2C
S1136220F81B8F2F0E9493298DE40E9493298FE3FA
S11362300E94932980E00E94932980E00E94932980
S11362408FEF0E94932980E00E94932980E00E94AE
S113625093298FEF0E9493298FE99FE00197F1F72B
S113626000C00000289882E20E94932987E50E94DA
S1136270932980E00E9493298BE50E94932905E1EC
S113628011E0F8018081FC2FF81B8F2F0E949329C5
S113629080E00E94932980E00E94932980E00E947C
S11362A0932980E00E94932980E00E94932980E052
S11362B00E9493298FE99FE00197F1F700C0000045
S11362C082E20E94932987E50E949329F801808144
S11362D0C81B8C2F0E9493298BE50E9493298FE37E
S11362E00E94932980E00E94932980E00E949329D0
S11362F08FEF0E94932980E00E94932980E00E94FE
S113630093298FEF0E9493298FE99FE00197F1F77A
S113631000C00000CF911F910F9108950F931F9318
S1136320CF93289882E20E94932983E00E949329C4
S113633080E00E94932987E00E94932908E011E0FD
S1136340CFE3F8018081FC2FF81B8F2F0E94932943
S113635080E00E94932980E00E94932980E00E94BB
S1136360932980E00E94932980E00E94932980E091
S11363700E9493298FE99FE00197F1F700C0000084
S113638082E20E94932983E00E949329F80180818C
S1136390FC2FF81B8F2F0E94932987E00E949329DA
S11363A08FE30E9493298FEF0E94932980E00E943B
S11363B0932980E00E9493298FEF0E94932980E023
S11363C00E94932980E00E9493298FE99FE001971E
S11363D0F1F700C00000289882E20E94932981E12D
S11363E00E94932980E00E94932985E10E949329C9
S11363F00FE011E0F8018081FC2FF81B8F2F0E9421
S1136400932980E00E94932980E00E94932980E0F0
S11364100E94932980E00E94932980E00E9493299E
S113642080E00E9493298FE99FE00197F1F700C073
S1136430000082E20E94932981E10E949329F801DD
S11364408081FC2FF81B8F2F0E94932985E10E94E5
S113645093298FE30E9493298FEF0E94932980E070
S11364600E94932980E00E9493298FEF0E94932930
S113647080E00E94932980E00E9493298FE99FE0A5
S11364800197F1F700C00000289882E20E94932946
S11364908FE10E94932980E00E94932983E20E9465
S11364A0932903E111E0F8018081FC2FF81B8F2F61
S11364B00E94932980E00E94932980E00E949329FE
S11364C080E00E94932980E00E94932980E00E944A
S11364D0932980E00E9493298FE99FE00197F1F7C7
S11364E000C0000082E20E9493298FE10E94932958
S11364F0F8018081FC2FF81B8F2F0E94932983E2DF
S11365000E9493298FE30E9493298FEF0E9493297D
S113651080E00E94932980E00E9493298FEF0E94DB
S1136520932980E00E94932980E00E9493298FE9B7
S11365309FE00197F1F700C00000289882E20E94D2
S113654093298DE20E94932980E00E94932981E39C
S11365500E9493290AE011E0F8018081FC2FF81BC6
S11365608F2F0E94932980E00E94932980E00E944B
S1136570932980E00E94932980E00E94932980E07F
S11365800E94932980E00E9493298FE99FE001975C
S1136590F1F700C0000082E20E9493298DE20E947C
S11365A09329F8018081FC2FF81B8F2F0E949329D7
S11365B081E30E9493298FE30E9493298FEF0E9425
S11365C0932980E00E94932980E00E9493298FEF11
S11365D00E94932980E00E94932980E00E949329DD
S11365E08FE99FE00197F1F700C00000289882E24C
S11365F00E9493298BE30E94932980E00E949329AF
S11366008FE30E94932901E111E0F8018081FC2FBE
S1136610F81B8F2F0E94932980E00E94932980E029
S11366200E94932980E00E94932980E00E9493298C
S113663080E00E94932980E00E9493298FE99FE0E3
S11366400197F1F700C0000082E20E9493298BE3D6
S11366500E949329F8018081FC2FF81B8F2F0E9440
S113666093298FE30E9493298FE30E9493298FEF4C
S11366700E94932980E00E94932980E00E9493293C
S11366808FEF0E94932980E00E94932980E00E946A
S113669093298FE99FE00197F1F700C00000289843
S11366A082E20E94932989E40E94932980E00E9457
S11366B093298DE40E94932906E011E0F80180817A
S11366C0FC2FF81B8F2F0E94932980E00E949329AE
S11366D080E00E94932980E00E94932980E00E9438
S11366E0932980E00E94932980E00E9493298FE9F6
S11366F09FE00197F1F700C0000082E20E94932915
S113670089E40E949329F8018081FC2FF81B8F2FC4
S11367100E9493298DE40E9493298FE30E94932978
S11367208FEF0E94932980E00E94932980E00E94C9
S113673093298FEF0E94932980E00E94932980E09F
S11367400E9493298FE99FE00197F1F700C00000B0
S1136750289882E20E94932987E50E94932980E089
S11367600E9493298BE50E94932905E111E0F80129
S11367708081FC2FF81B8F2F0E94932980E00E94B8
S1136780932980E00E94932980E00E94932980E06D
S11367900E94932980E00E94932980E00E9493291B
S11367A08FE99FE00197F1F700C0000082E20E94A8
S11367B0932987E50E949329F8018081C81B8C2FB7
S11367C00E9493298BE50E9493298FE30E949329C9
S11367D08FEF0E94932980E00E94932980E00E9419
S11367E093298FEF0E94932980E00E94932980E0EF
S11367F00E9493298FE99FE00197F1F700C0000000
S1136800CF911F910F91089584B18B6284B987B1A0
S1136810866087B9439AE8E6F0E0808182608083ED
S1136820ECE6F0E08081886080830E94A92C789453
S11368302D9829988FEC97E00197F1F700C000009C
S1136840299A8FEC97E00197F1F700C0000028988F
S11368508DEF0E94932982E10E9493298FEA0E947E
S1136860932984EA0E94932985E10E94932980E078
S11368700E9493298FE50E94932985E70E9493291A
S113688080E00E9493298FE30E94932987E80E9465
S1136890932986E00E94932983E80E94932980EC3F
S11368A00E94932982E80E94932985E60E949329F5
S11368B081E80E94932985E90E9493298AE80E942D
S11368C0932981E60E9493298BE80E94932982E60A
S11368D00E9493298CE80E94932983E60E949329BD
S11368E080EA0E94932982E70E94932981EA0E9408
S11368F0932980E00E94932982EA0E94932980E0F0
S11369000E94932988EA0E9493298FE30E94932985
S11369108DEA0E9493298FE80E94932980EB0E94BC
S113692093298AE10E94932981EB0E94932981EFA4
S11369300E94932983EB0E94932980ED0E9493295E
S11369408BEB0E9493298EE30E9493298EEB0E9485
S113695093298EE30E94932986E20E94932981EA77
S11369600E9493290E94432C9FEF29E688E19150CD
S113697020408040E1F700C00000289885E10E9493
S1136980932980E00E9493298FE50E94932985E74B
S11369900E94932988E00E9493298FE30E949329FF
S11369A00E947D2C289885E10E94932980E00E9412
S11369B093298FE50E94932985E70E94932980E01B
S11369C00E9493298FE30E9493299FEF2DE389E48A
S11369D0915020408040E1F700C000000E94662CE6
S11369E08FE19EE40197F1F700C000000E94932C10
S11369F09FEF2DE389E4915020408040E1F700C0EF
S1136A0000000E94662C8FE19EE40197F1F700C01C
S1136A1000000E94CE2C8091020190910301019705
S1136A2031F410920301109202010E94662C8091AD
S1136A300001909101018230910569F01CF40197E5
S1136A4039F011C08330910549F0049751F00BC01F
S1136A500E94CC2908C00E94ED2E05C00E94182F68
S1136A6002C00E948E318FE59AEE0197F1F700C0C3
S1136A700000CFCF1F920F920FB60F9211242F93C5
S1136A808F939F93339919C081E090E09093030111
S1136A90809302018091000190910101843091055D
S1136AA034F40196909301018093000106C081E0C3
S1136AB090E090930101809300012FEF82E597E02D
S1136AC0215080409040E1F700C000009F918F91D9
S1136AD02F910F900FBE0F901F90189597FB072EC4
S1136AE016F4009407D077FD09D00E94823507FC84
S1136AF005D03EF4909581959F4F089570956195CA
S1136B007F4F0895AA1BBB1B51E107C0AA1FBB1FDF
S1136B10A617B70710F0A61BB70B881F991F5A9525
S1136B20A9F780959095BC01CD010895F894FFCF05
S1056B3001005E
S9030000FC
